{
  "address": "0x455c5f2fc97aBfdf6f59C673ef1b7795cb4E5A18",
  "abi": [
    {
      "inputs": [
        {
          "internalType": "contract IERC20",
          "name": "token_",
          "type": "address"
        },
        {
          "internalType": "contract IERC721",
          "name": "nft_",
          "type": "address"
        },
        {
          "internalType": "bytes32",
          "name": "merkleRoot_",
          "type": "bytes32"
        }
      ],
      "stateMutability": "nonpayable",
      "type": "constructor"
    },
    {
      "anonymous": false,
      "inputs": [
        {
          "indexed": false,
          "internalType": "uint256",
          "name": "index",
          "type": "uint256"
        },
        {
          "indexed": false,
          "internalType": "address",
          "name": "account",
          "type": "address"
        },
        {
          "indexed": false,
          "internalType": "uint256",
          "name": "amount",
          "type": "uint256"
        },
        {
          "indexed": false,
          "internalType": "uint256",
          "name": "tokenId",
          "type": "uint256"
        }
      ],
      "name": "Claimed",
      "type": "event"
    },
    {
      "inputs": [
        {
          "internalType": "uint256",
          "name": "index",
          "type": "uint256"
        },
        {
          "internalType": "address",
          "name": "account",
          "type": "address"
        },
        {
          "internalType": "uint256",
          "name": "amount",
          "type": "uint256"
        },
        {
          "internalType": "uint256",
          "name": "tokenId",
          "type": "uint256"
        },
        {
          "internalType": "bytes32[]",
          "name": "merkleProof",
          "type": "bytes32[]"
        }
      ],
      "name": "claim",
      "outputs": [],
      "stateMutability": "nonpayable",
      "type": "function"
    },
    {
      "inputs": [
        {
          "internalType": "uint256",
          "name": "index",
          "type": "uint256"
        }
      ],
      "name": "isClaimed",
      "outputs": [
        {
          "internalType": "bool",
          "name": "",
          "type": "bool"
        }
      ],
      "stateMutability": "view",
      "type": "function"
    },
    {
      "inputs": [],
      "name": "merkleRoot",
      "outputs": [
        {
          "internalType": "bytes32",
          "name": "",
          "type": "bytes32"
        }
      ],
      "stateMutability": "view",
      "type": "function"
    },
    {
      "inputs": [],
      "name": "mints",
      "outputs": [
        {
          "internalType": "bytes4",
          "name": "",
          "type": "bytes4"
        }
      ],
      "stateMutability": "view",
      "type": "function"
    },
    {
      "inputs": [],
      "name": "nft",
      "outputs": [
        {
          "internalType": "contract IERC721",
          "name": "",
          "type": "address"
        }
      ],
      "stateMutability": "view",
      "type": "function"
    },
    {
      "inputs": [
        {
          "internalType": "bytes32",
          "name": "merkleRoot_",
          "type": "bytes32"
        }
      ],
      "name": "setRoot",
      "outputs": [],
      "stateMutability": "nonpayable",
      "type": "function"
    },
    {
      "inputs": [],
      "name": "token",
      "outputs": [
        {
          "internalType": "contract IERC20",
          "name": "",
          "type": "address"
        }
      ],
      "stateMutability": "view",
      "type": "function"
    }
  ],
  "transactionHash": "0x916f96baca030caf7a11c7dfd18278c8125fd56f13484948a4735fb7d293f705",
  "args": [
    "0x07494868ed1F273CAd9870fa31a0806Fd1ADeDd0",
    "0xfC5cC34aE8cBd4E97c047fb41378d04D878a5b21",
    "0xf04121753dcd2c17f0dbb1131ec0d15ae6e492aaebfe30a531f50b2e48ec1874"
  ],
  "bytecode": "0x60e06040526340c10f1960e01b60c05234801561001b57600080fd5b506040516108a63803806108a68339818101604052606081101561003e57600080fd5b50805160208201516040909201516001600160601b0319606092831b811660805260009190915591901b1660a05260805160601c60a05160601c60c05160e01c60e01b6107ee6100b86000398061046d5280610634525080610388528061049952806105e75250806102a8528061065852506107ee6000f3fe608060405234801561001057600080fd5b506004361061007d5760003560e01c80639e34070f1161005b5780639e34070f14610153578063dab5f34014610184578063dfc7379d146101a1578063fc0c546a146101c65761007d565b80632eb4a7ab146100825780633e4fcb211461009c57806347ccca021461012f575b600080fd5b61008a6101ce565b60408051918252519081900360200190f35b61012d600480360360a08110156100b257600080fd5b8135916001600160a01b036020820135169160408201359160608101359181019060a0810160808201356401000000008111156100ee57600080fd5b82018360208201111561010057600080fd5b8035906020019184602083028401116401000000008311171561012257600080fd5b5090925090506101d4565b005b6101376105e5565b604080516001600160a01b039092168252519081900360200190f35b6101706004803603602081101561016957600080fd5b5035610609565b604080519115158252519081900360200190f35b61012d6004803603602081101561019a57600080fd5b503561062d565b6101a9610632565b604080516001600160e01b03199092168252519081900360200190f35b610137610656565b60005481565b60008686868660405160200180858152602001846001600160a01b031660601b8152601401838152602001828152602001945050505050604051602081830303815290604052805190602001209050610262838380806020026020016040519081016040528093929190818152602001838360200280828437600092018290525054925085915061067a9050565b61029d5760405162461bcd60e51b81526004018080602001828103825260218152602001806107756021913960400191505060405180910390fd5b6102a687610723565b7f00000000000000000000000000000000000000000000000000000000000000006001600160a01b031663a9059cbb87876040518363ffffffff1660e01b815260040180836001600160a01b0316815260200182815260200192505050602060405180830381600087803b15801561031d57600080fd5b505af1158015610331573d6000803e3d6000fd5b505050506040513d602081101561034757600080fd5b50516103845760405162461bcd60e51b81526004018080602001828103825260238152602001806107966023913960400191505060405180910390fd5b60007f00000000000000000000000000000000000000000000000000000000000000006001600160a01b03166370a08231886040518263ffffffff1660e01b815260040180826001600160a01b0316815260200191505060206040518083038186803b1580156103f357600080fd5b505afa158015610407573d6000803e3d6000fd5b505050506040513d602081101561041d57600080fd5b505190508061058c57604080516001600160a01b038981166024830152604480830189905283518084039091018152606490920183526020820180516001600160e01b03166001600160e01b03197f000000000000000000000000000000000000000000000000000000000000000016178152925182516000947f000000000000000000000000000000000000000000000000000000000000000093909316939282918083835b602083106104e35780518252601f1990920191602091820191016104c4565b6001836020036101000a0380198251168184511680821785525050505050509050019150506000604051808303816000865af19150503d8060008114610545576040519150601f19603f3d011682016040523d82523d6000602084013e61054a565b606091505b505090508061058a5760405162461bcd60e51b815260040180806020018281038252602981526020018061074c6029913960400191505060405180910390fd5b505b604080518981526001600160a01b03891660208201528082018890526060810187905290517fd9cb1e2714d65a111c0f20f060176ad657496bd47a3de04ec7c3d4ca232112ac9181900360800190a15050505050505050565b7f000000000000000000000000000000000000000000000000000000000000000081565b610100810460009081526001602081905260409091205460ff9092161b9081161490565b600055565b7f000000000000000000000000000000000000000000000000000000000000000081565b7f000000000000000000000000000000000000000000000000000000000000000081565b600081815b855181101561071857600086828151811061069657fe5b602002602001015190508083116106dd578281604051602001808381526020018281526020019250505060405160208183030381529060405280519060200120925061070f565b808360405160200180838152602001828152602001925050506040516020818303038152906040528051906020012092505b5060010161067f565b509092149392505050565b61010081046000908152600160208190526040909120805460ff9093169190911b909117905556fe4d65726b6c654469737472696275746f723a206d696e74206e667420746f6b656e206661696c65642e4d65726b6c654469737472696275746f723a20496e76616c69642070726f6f662e4d65726b6c654469737472696275746f723a205472616e73666572206661696c65642ea2646970667358221220f6a91cd13144ef61b247ae17b76dd8d037a94a322d1f635912f1deddbd1c5cb664736f6c63430007030033"
}