{
  "address": "0xfC5cC34aE8cBd4E97c047fb41378d04D878a5b21",
  "abi": [
    {
      "inputs": [
        {
          "internalType": "address",
          "name": "owner",
          "type": "address"
        }
      ],
      "stateMutability": "nonpayable",
      "type": "constructor"
    },
    {
      "anonymous": false,
      "inputs": [
        {
          "indexed": true,
          "internalType": "address",
          "name": "owner",
          "type": "address"
        },
        {
          "indexed": true,
          "internalType": "address",
          "name": "approved",
          "type": "address"
        },
        {
          "indexed": true,
          "internalType": "uint256",
          "name": "tokenId",
          "type": "uint256"
        }
      ],
      "name": "Approval",
      "type": "event"
    },
    {
      "anonymous": false,
      "inputs": [
        {
          "indexed": true,
          "internalType": "address",
          "name": "owner",
          "type": "address"
        },
        {
          "indexed": true,
          "internalType": "address",
          "name": "operator",
          "type": "address"
        },
        {
          "indexed": false,
          "internalType": "bool",
          "name": "approved",
          "type": "bool"
        }
      ],
      "name": "ApprovalForAll",
      "type": "event"
    },
    {
      "anonymous": false,
      "inputs": [
        {
          "indexed": true,
          "internalType": "address",
          "name": "previousOwner",
          "type": "address"
        },
        {
          "indexed": true,
          "internalType": "address",
          "name": "newOwner",
          "type": "address"
        }
      ],
      "name": "OwnershipTransferred",
      "type": "event"
    },
    {
      "anonymous": false,
      "inputs": [
        {
          "indexed": true,
          "internalType": "address",
          "name": "from",
          "type": "address"
        },
        {
          "indexed": true,
          "internalType": "address",
          "name": "to",
          "type": "address"
        },
        {
          "indexed": true,
          "internalType": "uint256",
          "name": "tokenId",
          "type": "uint256"
        }
      ],
      "name": "Transfer",
      "type": "event"
    },
    {
      "inputs": [
        {
          "internalType": "address",
          "name": "to",
          "type": "address"
        },
        {
          "internalType": "uint256",
          "name": "tokenId",
          "type": "uint256"
        }
      ],
      "name": "approve",
      "outputs": [],
      "stateMutability": "nonpayable",
      "type": "function"
    },
    {
      "inputs": [
        {
          "internalType": "address",
          "name": "owner",
          "type": "address"
        }
      ],
      "name": "balanceOf",
      "outputs": [
        {
          "internalType": "uint256",
          "name": "",
          "type": "uint256"
        }
      ],
      "stateMutability": "view",
      "type": "function"
    },
    {
      "inputs": [],
      "name": "baseURI",
      "outputs": [
        {
          "internalType": "string",
          "name": "",
          "type": "string"
        }
      ],
      "stateMutability": "view",
      "type": "function"
    },
    {
      "inputs": [
        {
          "internalType": "uint256",
          "name": "tokenId",
          "type": "uint256"
        }
      ],
      "name": "getApproved",
      "outputs": [
        {
          "internalType": "address",
          "name": "",
          "type": "address"
        }
      ],
      "stateMutability": "view",
      "type": "function"
    },
    {
      "inputs": [
        {
          "internalType": "address",
          "name": "owner",
          "type": "address"
        },
        {
          "internalType": "address",
          "name": "operator",
          "type": "address"
        }
      ],
      "name": "isApprovedForAll",
      "outputs": [
        {
          "internalType": "bool",
          "name": "",
          "type": "bool"
        }
      ],
      "stateMutability": "view",
      "type": "function"
    },
    {
      "inputs": [
        {
          "internalType": "address",
          "name": "to",
          "type": "address"
        },
        {
          "internalType": "uint256",
          "name": "tokenId",
          "type": "uint256"
        }
      ],
      "name": "mint",
      "outputs": [],
      "stateMutability": "nonpayable",
      "type": "function"
    },
    {
      "inputs": [],
      "name": "minter",
      "outputs": [
        {
          "internalType": "address",
          "name": "",
          "type": "address"
        }
      ],
      "stateMutability": "view",
      "type": "function"
    },
    {
      "inputs": [],
      "name": "name",
      "outputs": [
        {
          "internalType": "string",
          "name": "",
          "type": "string"
        }
      ],
      "stateMutability": "view",
      "type": "function"
    },
    {
      "inputs": [],
      "name": "owner",
      "outputs": [
        {
          "internalType": "address",
          "name": "",
          "type": "address"
        }
      ],
      "stateMutability": "view",
      "type": "function"
    },
    {
      "inputs": [
        {
          "internalType": "uint256",
          "name": "tokenId",
          "type": "uint256"
        }
      ],
      "name": "ownerOf",
      "outputs": [
        {
          "internalType": "address",
          "name": "",
          "type": "address"
        }
      ],
      "stateMutability": "view",
      "type": "function"
    },
    {
      "inputs": [],
      "name": "renounceOwnership",
      "outputs": [],
      "stateMutability": "nonpayable",
      "type": "function"
    },
    {
      "inputs": [
        {
          "internalType": "address",
          "name": "from",
          "type": "address"
        },
        {
          "internalType": "address",
          "name": "to",
          "type": "address"
        },
        {
          "internalType": "uint256",
          "name": "tokenId",
          "type": "uint256"
        }
      ],
      "name": "safeTransferFrom",
      "outputs": [],
      "stateMutability": "nonpayable",
      "type": "function"
    },
    {
      "inputs": [
        {
          "internalType": "address",
          "name": "from",
          "type": "address"
        },
        {
          "internalType": "address",
          "name": "to",
          "type": "address"
        },
        {
          "internalType": "uint256",
          "name": "tokenId",
          "type": "uint256"
        },
        {
          "internalType": "bytes",
          "name": "_data",
          "type": "bytes"
        }
      ],
      "name": "safeTransferFrom",
      "outputs": [],
      "stateMutability": "nonpayable",
      "type": "function"
    },
    {
      "inputs": [
        {
          "internalType": "address",
          "name": "operator",
          "type": "address"
        },
        {
          "internalType": "bool",
          "name": "approved",
          "type": "bool"
        }
      ],
      "name": "setApprovalForAll",
      "outputs": [],
      "stateMutability": "nonpayable",
      "type": "function"
    },
    {
      "inputs": [
        {
          "internalType": "string",
          "name": "baseURI",
          "type": "string"
        }
      ],
      "name": "setBaseURI",
      "outputs": [],
      "stateMutability": "nonpayable",
      "type": "function"
    },
    {
      "inputs": [
        {
          "internalType": "uint256",
          "name": "tokenId",
          "type": "uint256"
        },
        {
          "internalType": "string",
          "name": "tokenURI",
          "type": "string"
        }
      ],
      "name": "setTokenURI",
      "outputs": [],
      "stateMutability": "nonpayable",
      "type": "function"
    },
    {
      "inputs": [
        {
          "internalType": "bytes4",
          "name": "interfaceId",
          "type": "bytes4"
        }
      ],
      "name": "supportsInterface",
      "outputs": [
        {
          "internalType": "bool",
          "name": "",
          "type": "bool"
        }
      ],
      "stateMutability": "view",
      "type": "function"
    },
    {
      "inputs": [],
      "name": "symbol",
      "outputs": [
        {
          "internalType": "string",
          "name": "",
          "type": "string"
        }
      ],
      "stateMutability": "view",
      "type": "function"
    },
    {
      "inputs": [
        {
          "internalType": "uint256",
          "name": "index",
          "type": "uint256"
        }
      ],
      "name": "tokenByIndex",
      "outputs": [
        {
          "internalType": "uint256",
          "name": "",
          "type": "uint256"
        }
      ],
      "stateMutability": "view",
      "type": "function"
    },
    {
      "inputs": [
        {
          "internalType": "address",
          "name": "owner",
          "type": "address"
        },
        {
          "internalType": "uint256",
          "name": "index",
          "type": "uint256"
        }
      ],
      "name": "tokenOfOwnerByIndex",
      "outputs": [
        {
          "internalType": "uint256",
          "name": "",
          "type": "uint256"
        }
      ],
      "stateMutability": "view",
      "type": "function"
    },
    {
      "inputs": [
        {
          "internalType": "uint256",
          "name": "tokenId",
          "type": "uint256"
        }
      ],
      "name": "tokenURI",
      "outputs": [
        {
          "internalType": "string",
          "name": "",
          "type": "string"
        }
      ],
      "stateMutability": "view",
      "type": "function"
    },
    {
      "inputs": [],
      "name": "totalSupply",
      "outputs": [
        {
          "internalType": "uint256",
          "name": "",
          "type": "uint256"
        }
      ],
      "stateMutability": "view",
      "type": "function"
    },
    {
      "inputs": [
        {
          "internalType": "address",
          "name": "from",
          "type": "address"
        },
        {
          "internalType": "address",
          "name": "to",
          "type": "address"
        },
        {
          "internalType": "uint256",
          "name": "tokenId",
          "type": "uint256"
        }
      ],
      "name": "transferFrom",
      "outputs": [],
      "stateMutability": "nonpayable",
      "type": "function"
    },
    {
      "inputs": [
        {
          "internalType": "address",
          "name": "newMinter",
          "type": "address"
        }
      ],
      "name": "transferMinter",
      "outputs": [],
      "stateMutability": "nonpayable",
      "type": "function"
    },
    {
      "inputs": [
        {
          "internalType": "address",
          "name": "newOwner",
          "type": "address"
        }
      ],
      "name": "transferOwnership",
      "outputs": [],
      "stateMutability": "nonpayable",
      "type": "function"
    }
  ],
  "transactionHash": "0x9cc0c0d34e2d544b7ad66aacb89ab1fefef9e7837c681a81f38e51de9890696c",
  "args": [
    "0xa995AE28b9cFf206C3971D1887cc934FC48e3a0F"
  ],
  "bytecode": "0x60806040523480156200001157600080fd5b506040516200260b3803806200260b833981810160405260208110156200003757600080fd5b50516040805180820182526005808252642a22bb32b960d91b6020838101919091528351808501909452908352642a22ab22a960d91b9083015290620000846301ffc9a760e01b62000144565b815162000099906006906020850190620002e7565b508051620000af906007906020840190620002e7565b50620000c26380ac58cd60e01b62000144565b620000d4635b5e139f60e01b62000144565b620000e663780e9d6360e01b62000144565b5060009050620000f5620001c9565b600a80546001600160a01b0319166001600160a01b03831690811790915560405191925090600090600080516020620025eb833981519152908290a3506200013d81620001cd565b5062000383565b6001600160e01b03198082161415620001a4576040805162461bcd60e51b815260206004820152601c60248201527f4552433136353a20696e76616c696420696e7465726661636520696400000000604482015290519081900360640190fd5b6001600160e01b0319166000908152602081905260409020805460ff19166001179055565b3390565b620001d7620001c9565b6001600160a01b0316620001ea620002d8565b6001600160a01b03161462000246576040805162461bcd60e51b815260206004820181905260248201527f4f776e61626c653a2063616c6c6572206973206e6f7420746865206f776e6572604482015290519081900360640190fd5b6001600160a01b0381166200028d5760405162461bcd60e51b8152600401808060200182810382526026815260200180620025c56026913960400191505060405180910390fd5b600a546040516001600160a01b03808416921690600080516020620025eb83398151915290600090a3600a80546001600160a01b0319166001600160a01b0392909216919091179055565b600a546001600160a01b031690565b828054600181600116156101000203166002900490600052602060002090601f016020900481019282601f106200032a57805160ff19168380011785556200035a565b828001600101855582156200035a579182015b828111156200035a5782518255916020019190600101906200033d565b50620003689291506200036c565b5090565b5b808211156200036857600081556001016200036d565b61223280620003936000396000f3fe608060405234801561001057600080fd5b50600436106101735760003560e01c806355f804b3116100de57806395d89b4111610097578063c87b56dd11610071578063c87b56dd14610644578063e985e9c514610661578063f2fde38b1461068f578063fe99ad5a146106b557610173565b806395d89b4114610548578063a22cb46514610550578063b88d4fde1461057e57610173565b806355f804b3146104475780636352211e146104ed5780636c0360eb1461050a57806370a0823114610512578063715018a6146105385780638da5cb5b1461054057610173565b806318160ddd1161013057806318160ddd1461034c57806323b872dd146103665780632f745c591461039c57806340c10f19146103c857806342842e0e146103f45780634f6ccce71461042a57610173565b806301ffc9a71461017857806306fdde03146101b35780630754617214610230578063081812fc14610254578063095ea7b314610271578063162094c41461029f575b600080fd5b61019f6004803603602081101561018e57600080fd5b50356001600160e01b0319166106db565b604080519115158252519081900360200190f35b6101bb6106fe565b6040805160208082528351818301528351919283929083019185019080838360005b838110156101f55781810151838201526020016101dd565b50505050905090810190601f1680156102225780820380516001836020036101000a031916815260200191505b509250505060405180910390f35b610238610794565b604080516001600160a01b039092168252519081900360200190f35b6102386004803603602081101561026a57600080fd5b50356107a3565b61029d6004803603604081101561028757600080fd5b506001600160a01b038135169060200135610805565b005b61029d600480360360408110156102b557600080fd5b813591908101906040810160208201356401000000008111156102d757600080fd5b8201836020820111156102e957600080fd5b8035906020019184600183028401116401000000008311171561030b57600080fd5b91908080601f0160208091040260200160405190810160405280939291908181526020018383808284376000920191909152509295506108e0945050505050565b610354610950565b60408051918252519081900360200190f35b61029d6004803603606081101561037c57600080fd5b506001600160a01b03813581169160208101359091169060400135610961565b610354600480360360408110156103b257600080fd5b506001600160a01b0381351690602001356109b8565b61029d600480360360408110156103de57600080fd5b506001600160a01b0381351690602001356109e3565b61029d6004803603606081101561040a57600080fd5b506001600160a01b03813581169160208101359091169060400135610a36565b6103546004803603602081101561044057600080fd5b5035610a51565b61029d6004803603602081101561045d57600080fd5b81019060208101813564010000000081111561047857600080fd5b82018360208201111561048a57600080fd5b803590602001918460018302840111640100000000831117156104ac57600080fd5b91908080601f016020809104026020016040519081016040528093929190818152602001838380828437600092019190915250929550610a67945050505050565b6102386004803603602081101561050357600080fd5b5035610ad5565b6101bb610afd565b6103546004803603602081101561052857600080fd5b50356001600160a01b0316610b5e565b61029d610bc6565b610238610c72565b6101bb610c81565b61029d6004803603604081101561056657600080fd5b506001600160a01b0381351690602001351515610ce2565b61029d6004803603608081101561059457600080fd5b6001600160a01b038235811692602081013590911691604082013591908101906080810160608201356401000000008111156105cf57600080fd5b8201836020820111156105e157600080fd5b8035906020019184600183028401116401000000008311171561060357600080fd5b91908080601f016020809104026020016040519081016040528093929190818152602001838380828437600092019190915250929550610de7945050505050565b6101bb6004803603602081101561065a57600080fd5b5035610e45565b61019f6004803603604081101561067757600080fd5b506001600160a01b03813581169160200135166110c8565b61029d600480360360208110156106a557600080fd5b50356001600160a01b03166110f6565b61029d600480360360208110156106cb57600080fd5b50356001600160a01b03166111f9565b6001600160e01b0319811660009081526020819052604090205460ff165b919050565b60068054604080516020601f600260001961010060018816150201909516949094049384018190048102820181019092528281526060939092909183018282801561078a5780601f1061075f5761010080835404028352916020019161078a565b820191906000526020600020905b81548152906001019060200180831161076d57829003601f168201915b5050505050905090565b600b546001600160a01b031681565b60006107ae8261127d565b6107e95760405162461bcd60e51b815260040180806020018281038252602c8152602001806120b2602c913960400191505060405180910390fd5b506000908152600460205260409020546001600160a01b031690565b600061081082610ad5565b9050806001600160a01b0316836001600160a01b031614156108635760405162461bcd60e51b81526004018080602001828103825260218152602001806121826021913960400191505060405180910390fd5b806001600160a01b031661087561128a565b6001600160a01b0316148061089657506108968161089161128a565b6110c8565b6108d15760405162461bcd60e51b81526004018080602001828103825260388152602001806120056038913960400191505060405180910390fd5b6108db838361128e565b505050565b6108e861128a565b6001600160a01b03166108f9610c72565b6001600160a01b031614610942576040805162461bcd60e51b8152602060048201819052602482015260008051602061210a833981519152604482015290519081900360640190fd5b61094c82826112fc565b5050565b600061095c600261135f565b905090565b61097261096c61128a565b8261136a565b6109ad5760405162461bcd60e51b81526004018080602001828103825260318152602001806121cc6031913960400191505060405180910390fd5b6108db83838361140e565b6001600160a01b03821660009081526001602052604081206109da908361155a565b90505b92915050565b600b546001600160a01b03163314610a2c5760405162461bcd60e51b81526004018080602001828103825260298152602001806121a36029913960400191505060405180910390fd5b61094c8282611566565b6108db83838360405180602001604052806000815250610de7565b600080610a5f600284611694565b509392505050565b610a6f61128a565b6001600160a01b0316610a80610c72565b6001600160a01b031614610ac9576040805162461bcd60e51b8152602060048201819052602482015260008051602061210a833981519152604482015290519081900360640190fd5b610ad2816116b0565b50565b60006109dd8260405180606001604052806029815260200161206760299139600291906116c3565b60098054604080516020601f600260001961010060018816150201909516949094049384018190048102820181019092528281526060939092909183018282801561078a5780601f1061075f5761010080835404028352916020019161078a565b60006001600160a01b038216610ba55760405162461bcd60e51b815260040180806020018281038252602a81526020018061203d602a913960400191505060405180910390fd5b6001600160a01b03821660009081526001602052604090206109dd9061135f565b610bce61128a565b6001600160a01b0316610bdf610c72565b6001600160a01b031614610c28576040805162461bcd60e51b8152602060048201819052602482015260008051602061210a833981519152604482015290519081900360640190fd5b600a546040516000916001600160a01b0316907f8be0079c531659141344cd1fd0a4f28419497f9722a3daafe3b4186f6b6457e0908390a3600a80546001600160a01b0319169055565b600a546001600160a01b031690565b60078054604080516020601f600260001961010060018816150201909516949094049384018190048102820181019092528281526060939092909183018282801561078a5780601f1061075f5761010080835404028352916020019161078a565b610cea61128a565b6001600160a01b0316826001600160a01b03161415610d50576040805162461bcd60e51b815260206004820152601960248201527f4552433732313a20617070726f766520746f2063616c6c657200000000000000604482015290519081900360640190fd5b8060056000610d5d61128a565b6001600160a01b03908116825260208083019390935260409182016000908120918716808252919093529120805460ff191692151592909217909155610da161128a565b6001600160a01b03167f17307eab39ab6107e8899845ad3d59bd9653f200f220920489ca2b5937696c318360405180821515815260200191505060405180910390a35050565b610df8610df261128a565b8361136a565b610e335760405162461bcd60e51b81526004018080602001828103825260318152602001806121cc6031913960400191505060405180910390fd5b610e3f848484846116da565b50505050565b6060610e508261127d565b610e8b5760405162461bcd60e51b815260040180806020018281038252602f815260200180612153602f913960400191505060405180910390fd5b60008281526008602090815260409182902080548351601f6002600019610100600186161502019093169290920491820184900484028101840190945280845260609392830182828015610f205780601f10610ef557610100808354040283529160200191610f20565b820191906000526020600020905b815481529060010190602001808311610f0357829003601f168201915b505050505090506060610f31610afd565b9050805160001415610f45575090506106f9565b8151156110065780826040516020018083805190602001908083835b60208310610f805780518252601f199092019160209182019101610f61565b51815160209384036101000a600019018019909216911617905285519190930192850191508083835b60208310610fc85780518252601f199092019160209182019101610fa9565b6001836020036101000a03801982511681845116808217855250505050505090500192505050604051602081830303815290604052925050506106f9565b806110108561172c565b6040516020018083805190602001908083835b602083106110425780518252601f199092019160209182019101611023565b51815160209384036101000a600019018019909216911617905285519190930192850191508083835b6020831061108a5780518252601f19909201916020918201910161106b565b6001836020036101000a0380198251168184511680821785525050505050509050019250505060405160208183030381529060405292505050919050565b6001600160a01b03918216600090815260056020908152604080832093909416825291909152205460ff1690565b6110fe61128a565b6001600160a01b031661110f610c72565b6001600160a01b031614611158576040805162461bcd60e51b8152602060048201819052602482015260008051602061210a833981519152604482015290519081900360640190fd5b6001600160a01b03811661119d5760405162461bcd60e51b8152600401808060200182810382526026815260200180611f8f6026913960400191505060405180910390fd5b600a546040516001600160a01b038084169216907f8be0079c531659141344cd1fd0a4f28419497f9722a3daafe3b4186f6b6457e090600090a3600a80546001600160a01b0319166001600160a01b0392909216919091179055565b61120161128a565b6001600160a01b0316611212610c72565b6001600160a01b03161461125b576040805162461bcd60e51b8152602060048201819052602482015260008051602061210a833981519152604482015290519081900360640190fd5b600b80546001600160a01b0319166001600160a01b0392909216919091179055565b60006109dd600283611807565b3390565b600081815260046020526040902080546001600160a01b0319166001600160a01b03841690811790915581906112c382610ad5565b6001600160a01b03167f8c5be1e5ebec7d5bd14f71427d1e84f3dd0314c0f7b2291e5b200ac8c7c3b92560405160405180910390a45050565b6113058261127d565b6113405760405162461bcd60e51b815260040180806020018281038252602c8152602001806120de602c913960400191505060405180910390fd5b600082815260086020908152604090912082516108db92840190611ea7565b60006109dd82611813565b60006113758261127d565b6113b05760405162461bcd60e51b815260040180806020018281038252602c815260200180611fd9602c913960400191505060405180910390fd5b60006113bb83610ad5565b9050806001600160a01b0316846001600160a01b031614806113f65750836001600160a01b03166113eb846107a3565b6001600160a01b0316145b80611406575061140681856110c8565b949350505050565b826001600160a01b031661142182610ad5565b6001600160a01b0316146114665760405162461bcd60e51b815260040180806020018281038252602981526020018061212a6029913960400191505060405180910390fd5b6001600160a01b0382166114ab5760405162461bcd60e51b8152600401808060200182810382526024815260200180611fb56024913960400191505060405180910390fd5b6114b68383836108db565b6114c160008261128e565b6001600160a01b03831660009081526001602052604090206114e39082611817565b506001600160a01b03821660009081526001602052604090206115069082611823565b506115136002828461182f565b5080826001600160a01b0316846001600160a01b03167fddf252ad1be2c89b69c2b068fc378daa952ba7f163c4a11628f55a4df523b3ef60405160405180910390a4505050565b60006109da8383611845565b6001600160a01b0382166115c1576040805162461bcd60e51b815260206004820181905260248201527f4552433732313a206d696e7420746f20746865207a65726f2061646472657373604482015290519081900360640190fd5b6115ca8161127d565b1561161c576040805162461bcd60e51b815260206004820152601c60248201527f4552433732313a20746f6b656e20616c7265616479206d696e74656400000000604482015290519081900360640190fd5b611628600083836108db565b6001600160a01b038216600090815260016020526040902061164a9082611823565b506116576002828461182f565b5060405181906001600160a01b038416906000907fddf252ad1be2c89b69c2b068fc378daa952ba7f163c4a11628f55a4df523b3ef908290a45050565b60008080806116a386866118a9565b9097909650945050505050565b805161094c906009906020840190611ea7565b60006116d0848484611924565b90505b9392505050565b6116e584848461140e565b6116f1848484846119ee565b610e3f5760405162461bcd60e51b8152600401808060200182810382526032815260200180611f5d6032913960400191505060405180910390fd5b60608161175157506040805180820190915260018152600360fc1b60208201526106f9565b8160005b811561176957600101600a82049150611755565b60608167ffffffffffffffff8111801561178257600080fd5b506040519080825280601f01601f1916602001820160405280156117ad576020820181803683370190505b50859350905060001982015b83156117fe57600a840660300160f81b828280600190039350815181106117dc57fe5b60200101906001600160f81b031916908160001a905350600a840493506117b9565b50949350505050565b60006109da8383611b56565b5490565b60006109da8383611b6e565b60006109da8383611c34565b60006116d084846001600160a01b038516611c7e565b815460009082106118875760405162461bcd60e51b8152600401808060200182810382526022815260200180611f3b6022913960400191505060405180910390fd5b82600001828154811061189657fe5b9060005260206000200154905092915050565b8154600090819083106118ed5760405162461bcd60e51b81526004018080602001828103825260228152602001806120906022913960400191505060405180910390fd5b60008460000184815481106118fe57fe5b906000526020600020906002020190508060000154816001015492509250509250929050565b600082815260018401602052604081205482816119bf5760405162461bcd60e51b81526004018080602001828103825283818151815260200191508051906020019080838360005b8381101561198457818101518382015260200161196c565b50505050905090810190601f1680156119b15780820380516001836020036101000a031916815260200191505b509250505060405180910390fd5b508460000160018203815481106119d257fe5b9060005260206000209060020201600101549150509392505050565b6000611a02846001600160a01b0316611d15565b611a0e57506001611406565b6060611b1c630a85bd0160e11b611a2361128a565b88878760405160240180856001600160a01b03168152602001846001600160a01b0316815260200183815260200180602001828103825283818151815260200191508051906020019080838360005b83811015611a8a578181015183820152602001611a72565b50505050905090810190601f168015611ab75780820380516001836020036101000a031916815260200191505b5095505050505050604051602081830303815290604052906001600160e01b0319166020820180516001600160e01b038381831617835250505050604051806060016040528060328152602001611f5d603291396001600160a01b0388169190611d1b565b90506000818060200190516020811015611b3557600080fd5b50516001600160e01b031916630a85bd0160e11b1492505050949350505050565b60009081526001919091016020526040902054151590565b60008181526001830160205260408120548015611c2a5783546000198083019190810190600090879083908110611ba157fe5b9060005260206000200154905080876000018481548110611bbe57fe5b600091825260208083209091019290925582815260018981019092526040902090840190558654879080611bee57fe5b600190038181906000526020600020016000905590558660010160008781526020019081526020016000206000905560019450505050506109dd565b60009150506109dd565b6000611c408383611b56565b611c76575081546001818101845560008481526020808220909301849055845484825282860190935260409020919091556109dd565b5060006109dd565b600082815260018401602052604081205480611ce35750506040805180820182528381526020808201848152865460018181018955600089815284812095516002909302909501918255915190820155865486845281880190925292909120556116d3565b82856000016001830381548110611cf657fe5b90600052602060002090600202016001018190555060009150506116d3565b3b151590565b60606116d0848460008585611d2f85611d15565b611d80576040805162461bcd60e51b815260206004820152601d60248201527f416464726573733a2063616c6c20746f206e6f6e2d636f6e7472616374000000604482015290519081900360640190fd5b60006060866001600160a01b031685876040518082805190602001908083835b60208310611dbf5780518252601f199092019160209182019101611da0565b6001836020036101000a03801982511681845116808217855250505050505090500191505060006040518083038185875af1925050503d8060008114611e21576040519150601f19603f3d011682016040523d82523d6000602084013e611e26565b606091505b5091509150611e36828286611e41565b979650505050505050565b60608315611e505750816116d3565b825115611e605782518084602001fd5b60405162461bcd60e51b815260206004820181815284516024840152845185939192839260440191908501908083836000831561198457818101518382015260200161196c565b828054600181600116156101000203166002900490600052602060002090601f016020900481019282601f10611ee857805160ff1916838001178555611f15565b82800160010185558215611f15579182015b82811115611f15578251825591602001919060010190611efa565b50611f21929150611f25565b5090565b5b80821115611f215760008155600101611f2656fe456e756d657261626c655365743a20696e646578206f7574206f6620626f756e64734552433732313a207472616e7366657220746f206e6f6e20455243373231526563656976657220696d706c656d656e7465724f776e61626c653a206e6577206f776e657220697320746865207a65726f20616464726573734552433732313a207472616e7366657220746f20746865207a65726f20616464726573734552433732313a206f70657261746f7220717565727920666f72206e6f6e6578697374656e7420746f6b656e4552433732313a20617070726f76652063616c6c6572206973206e6f74206f776e6572206e6f7220617070726f76656420666f7220616c6c4552433732313a2062616c616e636520717565727920666f7220746865207a65726f20616464726573734552433732313a206f776e657220717565727920666f72206e6f6e6578697374656e7420746f6b656e456e756d657261626c654d61703a20696e646578206f7574206f6620626f756e64734552433732313a20617070726f76656420717565727920666f72206e6f6e6578697374656e7420746f6b656e4552433732314d657461646174613a2055524920736574206f66206e6f6e6578697374656e7420746f6b656e4f776e61626c653a2063616c6c6572206973206e6f7420746865206f776e65724552433732313a207472616e73666572206f6620746f6b656e2074686174206973206e6f74206f776e4552433732314d657461646174613a2055524920717565727920666f72206e6f6e6578697374656e7420746f6b656e4552433732313a20617070726f76616c20746f2063757272656e74206f776e657254457665724e46543a206f6e6c79206d696e74657220697320616c6c6f77656420746f206d696e742e4552433732313a207472616e736665722063616c6c6572206973206e6f74206f776e6572206e6f7220617070726f766564a26469706673582212204a21ab879ed3db5aa8e9703f5d577eb2862f0d34e832cb9ac35c94abeddef67964736f6c634300070300334f776e61626c653a206e6577206f776e657220697320746865207a65726f20616464726573738be0079c531659141344cd1fd0a4f28419497f9722a3daafe3b4186f6b6457e0"
}