{
  "address": "0x70d40f7a0C24Fa0A7fd79724A9e02721fB08853d",
  "abi": [
    {
      "inputs": [
        {
          "internalType": "contract IERC20",
          "name": "token_",
          "type": "address"
        },
        {
          "internalType": "contract IERC721",
          "name": "nft_",
          "type": "address"
        },
        {
          "internalType": "bytes32",
          "name": "merkleRoot_",
          "type": "bytes32"
        }
      ],
      "stateMutability": "nonpayable",
      "type": "constructor"
    },
    {
      "anonymous": false,
      "inputs": [
        {
          "indexed": false,
          "internalType": "uint256",
          "name": "index",
          "type": "uint256"
        },
        {
          "indexed": false,
          "internalType": "address",
          "name": "account",
          "type": "address"
        },
        {
          "indexed": false,
          "internalType": "uint256",
          "name": "amount",
          "type": "uint256"
        },
        {
          "indexed": false,
          "internalType": "uint256",
          "name": "tokenId",
          "type": "uint256"
        }
      ],
      "name": "Claimed",
      "type": "event"
    },
    {
      "inputs": [
        {
          "internalType": "uint256",
          "name": "index",
          "type": "uint256"
        },
        {
          "internalType": "address",
          "name": "account",
          "type": "address"
        },
        {
          "internalType": "uint256",
          "name": "amount",
          "type": "uint256"
        },
        {
          "internalType": "uint256",
          "name": "tokenId",
          "type": "uint256"
        },
        {
          "internalType": "bytes32[]",
          "name": "merkleProof",
          "type": "bytes32[]"
        }
      ],
      "name": "claim",
      "outputs": [],
      "stateMutability": "nonpayable",
      "type": "function"
    },
    {
      "inputs": [
        {
          "internalType": "uint256",
          "name": "index",
          "type": "uint256"
        }
      ],
      "name": "isClaimed",
      "outputs": [
        {
          "internalType": "bool",
          "name": "",
          "type": "bool"
        }
      ],
      "stateMutability": "view",
      "type": "function"
    },
    {
      "inputs": [],
      "name": "merkleRoot",
      "outputs": [
        {
          "internalType": "bytes32",
          "name": "",
          "type": "bytes32"
        }
      ],
      "stateMutability": "view",
      "type": "function"
    },
    {
      "inputs": [],
      "name": "mints",
      "outputs": [
        {
          "internalType": "bytes4",
          "name": "",
          "type": "bytes4"
        }
      ],
      "stateMutability": "view",
      "type": "function"
    },
    {
      "inputs": [],
      "name": "nft",
      "outputs": [
        {
          "internalType": "contract IERC721",
          "name": "",
          "type": "address"
        }
      ],
      "stateMutability": "view",
      "type": "function"
    },
    {
      "inputs": [
        {
          "internalType": "bytes32",
          "name": "merkleRoot_",
          "type": "bytes32"
        }
      ],
      "name": "setRoot",
      "outputs": [],
      "stateMutability": "nonpayable",
      "type": "function"
    },
    {
      "inputs": [],
      "name": "token",
      "outputs": [
        {
          "internalType": "contract IERC20",
          "name": "",
          "type": "address"
        }
      ],
      "stateMutability": "view",
      "type": "function"
    }
  ],
  "transactionHash": "0x296e668732b886559d0f1a485626b1ef4745bdcd35ba8d78206076d703b25e46",
  "args": [
    "0x7c17dEe8ECD5fCB3A32f2189A1f6859611DA8b11",
    "0x429F4083cB8edDa016f9C590e6f56850c038A37A",
    "0x9ed84f1a2fa2a2e3de0edde0f40fdb7042f577f7a0d01f319fffc39af439ea31"
  ],
  "bytecode": "0x60e06040526340c10f1960e01b60c05234801561001b57600080fd5b50604051610a7b380380610a7b83398101604081905261003a9161005e565b6001600160601b0319606093841b8116608052600091909155911b1660a0526100b8565b600080600060608486031215610072578283fd5b835161007d816100a0565b602085015190935061008e816100a0565b80925050604084015190509250925092565b6001600160a01b03811681146100b557600080fd5b50565b60805160601c60a05160601c60c05160e01c60e01b61096c61010f6000396000818161034e01526104d601526000818161029401528181610324015261046c0152600081816101d501526104fa015261096c6000f3fe608060405234801561001057600080fd5b506004361061007d5760003560e01c80639e34070f1161005b5780639e34070f146100ca578063dab5f340146100ea578063dfc7379d146100fd578063fc0c546a146101125761007d565b80632eb4a7ab146100825780633e4fcb21146100a057806347ccca02146100b5575b600080fd5b61008a61011a565b60405161009791906107c2565b60405180910390f35b6100b36100ae36600461066d565b610120565b005b6100bd61046a565b604051610097919061078a565b6100dd6100d836600461063d565b61048e565b60405161009791906107b7565b6100b36100f836600461063d565b6104cf565b6101056104d4565b60405161009791906107cb565b6100bd6104f8565b60005481565b600086868686604051602001610139949392919061075d565b604051602081830303815290604052805190602001209050610190838380806020026020016040519081016040528093929190818152602001838360200280828437600092018290525054925085915061051c9050565b6101b55760405162461bcd60e51b81526004016101ac90610829565b60405180910390fd5b6101be876105d7565b60405163a9059cbb60e01b81526001600160a01b037f0000000000000000000000000000000000000000000000000000000000000000169063a9059cbb9061020c908990899060040161079e565b602060405180830381600087803b15801561022657600080fd5b505af115801561023a573d6000803e3d6000fd5b505050506040513d601f19601f8201168201806040525081019061025e9190610616565b61027a5760405162461bcd60e51b81526004016101ac9061086a565b6040516370a0823160e01b81526000906001600160a01b037f000000000000000000000000000000000000000000000000000000000000000016906370a08231906102c9908a9060040161078a565b60206040518083038186803b1580156102e157600080fd5b505afa1580156102f5573d6000803e3d6000fd5b505050506040513d601f19601f820116820180604052508101906103199190610655565b9050806104235760007f00000000000000000000000000000000000000000000000000000000000000006001600160a01b03167f0000000000000000000000000000000000000000000000000000000000000000898860405160240161038092919061079e565b60408051601f198184030181529181526020820180516001600160e01b03166001600160e01b03199094169390931790925290516103be9190610724565b6000604051808303816000865af19150503d80600081146103fb576040519150601f19603f3d011682016040523d82523d6000602084013e610400565b606091505b50509050806104215760405162461bcd60e51b81526004016101ac906107e0565b505b7fd9cb1e2714d65a111c0f20f060176ad657496bd47a3de04ec7c3d4ca232112ac8888888860405161045894939291906108ad565b60405180910390a15050505050505050565b7f000000000000000000000000000000000000000000000000000000000000000081565b60008061049d610100846108d1565b905060006104ad6101008561090c565b60009283526001602081905260409093205492901b9182169091149392505050565b600055565b7f000000000000000000000000000000000000000000000000000000000000000081565b7f000000000000000000000000000000000000000000000000000000000000000081565b600081815b85518110156105cc57600086828151811061054c57634e487b7160e01b600052603260045260246000fd5b6020026020010151905080831161058d578281604051602001610570929190610716565b6040516020818303038152906040528051906020012092506105b9565b80836040516020016105a0929190610716565b6040516020818303038152906040528051906020012092505b50806105c4816108e5565b915050610521565b509092149392505050565b60006105e5610100836108d1565b905060006105f56101008461090c565b600092835260016020819052604090932080549390911b9092179091555050565b600060208284031215610627578081fd5b81518015158114610636578182fd5b9392505050565b60006020828403121561064e578081fd5b5035919050565b600060208284031215610666578081fd5b5051919050565b60008060008060008060a08789031215610685578182fd5b8635955060208701356001600160a01b03811681146106a2578283fd5b94506040870135935060608701359250608087013567ffffffffffffffff808211156106cc578384fd5b818901915089601f8301126106df578384fd5b8135818111156106ed578485fd5b8a60208083028501011115610700578485fd5b6020830194508093505050509295509295509295565b918252602082015260400190565b60008251815b81811015610744576020818601810151858301520161072a565b818111156107525782828501525b509190910192915050565b93845260609290921b6bffffffffffffffffffffffff191660208401526034830152605482015260740190565b6001600160a01b0391909116815260200190565b6001600160a01b03929092168252602082015260400190565b901515815260200190565b90815260200190565b6001600160e01b031991909116815260200190565b60208082526029908201527f4d65726b6c654469737472696275746f723a206d696e74206e667420746f6b6560408201526837103330b4b632b21760b91b606082015260800190565b60208082526021908201527f4d65726b6c654469737472696275746f723a20496e76616c69642070726f6f666040820152601760f91b606082015260800190565b60208082526023908201527f4d65726b6c654469737472696275746f723a205472616e73666572206661696c60408201526232b21760e91b606082015260800190565b9384526001600160a01b039290921660208401526040830152606082015260800190565b6000826108e0576108e0610920565b500490565b600060001982141561090557634e487b7160e01b81526011600452602481fd5b5060010190565b60008261091b5761091b610920565b500690565b634e487b7160e01b600052601260045260246000fdfea26469706673582212208fb775420136488e9167bfa863d6934b443238822097dd89ef4a9d1e56fe7c4f64736f6c63430008000033"
}