{
  "address": "0x641C3186337B0cc83c1F1F9F1a669a37243d5199",
  "abi": [
    {
      "inputs": [
        {
          "internalType": "address",
          "name": "owner",
          "type": "address"
        },
        {
          "internalType": "string",
          "name": "_uri",
          "type": "string"
        }
      ],
      "stateMutability": "nonpayable",
      "type": "constructor"
    },
    {
      "anonymous": false,
      "inputs": [
        {
          "indexed": true,
          "internalType": "address",
          "name": "account",
          "type": "address"
        },
        {
          "indexed": true,
          "internalType": "address",
          "name": "operator",
          "type": "address"
        },
        {
          "indexed": false,
          "internalType": "bool",
          "name": "approved",
          "type": "bool"
        }
      ],
      "name": "ApprovalForAll",
      "type": "event"
    },
    {
      "anonymous": false,
      "inputs": [
        {
          "indexed": true,
          "internalType": "address",
          "name": "previousOwner",
          "type": "address"
        },
        {
          "indexed": true,
          "internalType": "address",
          "name": "newOwner",
          "type": "address"
        }
      ],
      "name": "OwnershipTransferred",
      "type": "event"
    },
    {
      "anonymous": false,
      "inputs": [
        {
          "indexed": true,
          "internalType": "address",
          "name": "operator",
          "type": "address"
        },
        {
          "indexed": true,
          "internalType": "address",
          "name": "from",
          "type": "address"
        },
        {
          "indexed": true,
          "internalType": "address",
          "name": "to",
          "type": "address"
        },
        {
          "indexed": false,
          "internalType": "uint256[]",
          "name": "ids",
          "type": "uint256[]"
        },
        {
          "indexed": false,
          "internalType": "uint256[]",
          "name": "values",
          "type": "uint256[]"
        }
      ],
      "name": "TransferBatch",
      "type": "event"
    },
    {
      "anonymous": false,
      "inputs": [
        {
          "indexed": true,
          "internalType": "address",
          "name": "operator",
          "type": "address"
        },
        {
          "indexed": true,
          "internalType": "address",
          "name": "from",
          "type": "address"
        },
        {
          "indexed": true,
          "internalType": "address",
          "name": "to",
          "type": "address"
        },
        {
          "indexed": false,
          "internalType": "uint256",
          "name": "id",
          "type": "uint256"
        },
        {
          "indexed": false,
          "internalType": "uint256",
          "name": "value",
          "type": "uint256"
        }
      ],
      "name": "TransferSingle",
      "type": "event"
    },
    {
      "anonymous": false,
      "inputs": [
        {
          "indexed": false,
          "internalType": "string",
          "name": "value",
          "type": "string"
        },
        {
          "indexed": true,
          "internalType": "uint256",
          "name": "id",
          "type": "uint256"
        }
      ],
      "name": "URI",
      "type": "event"
    },
    {
      "inputs": [
        {
          "internalType": "address",
          "name": "account",
          "type": "address"
        },
        {
          "internalType": "uint256",
          "name": "id",
          "type": "uint256"
        }
      ],
      "name": "balanceOf",
      "outputs": [
        {
          "internalType": "uint256",
          "name": "",
          "type": "uint256"
        }
      ],
      "stateMutability": "view",
      "type": "function"
    },
    {
      "inputs": [
        {
          "internalType": "address[]",
          "name": "accounts",
          "type": "address[]"
        },
        {
          "internalType": "uint256[]",
          "name": "ids",
          "type": "uint256[]"
        }
      ],
      "name": "balanceOfBatch",
      "outputs": [
        {
          "internalType": "uint256[]",
          "name": "",
          "type": "uint256[]"
        }
      ],
      "stateMutability": "view",
      "type": "function"
    },
    {
      "inputs": [
        {
          "internalType": "uint256",
          "name": "id",
          "type": "uint256"
        }
      ],
      "name": "exists",
      "outputs": [
        {
          "internalType": "bool",
          "name": "",
          "type": "bool"
        }
      ],
      "stateMutability": "view",
      "type": "function"
    },
    {
      "inputs": [
        {
          "internalType": "address",
          "name": "account",
          "type": "address"
        },
        {
          "internalType": "address",
          "name": "operator",
          "type": "address"
        }
      ],
      "name": "isApprovedForAll",
      "outputs": [
        {
          "internalType": "bool",
          "name": "",
          "type": "bool"
        }
      ],
      "stateMutability": "view",
      "type": "function"
    },
    {
      "inputs": [
        {
          "internalType": "address",
          "name": "to",
          "type": "address"
        },
        {
          "internalType": "uint256",
          "name": "tokenId",
          "type": "uint256"
        },
        {
          "internalType": "uint256",
          "name": "amount",
          "type": "uint256"
        }
      ],
      "name": "mint",
      "outputs": [],
      "stateMutability": "nonpayable",
      "type": "function"
    },
    {
      "inputs": [],
      "name": "name",
      "outputs": [
        {
          "internalType": "string",
          "name": "",
          "type": "string"
        }
      ],
      "stateMutability": "view",
      "type": "function"
    },
    {
      "inputs": [],
      "name": "owner",
      "outputs": [
        {
          "internalType": "address",
          "name": "",
          "type": "address"
        }
      ],
      "stateMutability": "view",
      "type": "function"
    },
    {
      "inputs": [],
      "name": "renounceOwnership",
      "outputs": [],
      "stateMutability": "nonpayable",
      "type": "function"
    },
    {
      "inputs": [
        {
          "internalType": "address",
          "name": "from",
          "type": "address"
        },
        {
          "internalType": "address",
          "name": "to",
          "type": "address"
        },
        {
          "internalType": "uint256[]",
          "name": "ids",
          "type": "uint256[]"
        },
        {
          "internalType": "uint256[]",
          "name": "amounts",
          "type": "uint256[]"
        },
        {
          "internalType": "bytes",
          "name": "data",
          "type": "bytes"
        }
      ],
      "name": "safeBatchTransferFrom",
      "outputs": [],
      "stateMutability": "nonpayable",
      "type": "function"
    },
    {
      "inputs": [
        {
          "internalType": "address",
          "name": "from",
          "type": "address"
        },
        {
          "internalType": "address",
          "name": "to",
          "type": "address"
        },
        {
          "internalType": "uint256",
          "name": "id",
          "type": "uint256"
        },
        {
          "internalType": "uint256",
          "name": "amount",
          "type": "uint256"
        },
        {
          "internalType": "bytes",
          "name": "data",
          "type": "bytes"
        }
      ],
      "name": "safeTransferFrom",
      "outputs": [],
      "stateMutability": "nonpayable",
      "type": "function"
    },
    {
      "inputs": [
        {
          "internalType": "address",
          "name": "operator",
          "type": "address"
        },
        {
          "internalType": "bool",
          "name": "approved",
          "type": "bool"
        }
      ],
      "name": "setApprovalForAll",
      "outputs": [],
      "stateMutability": "nonpayable",
      "type": "function"
    },
    {
      "inputs": [
        {
          "internalType": "string",
          "name": "_uri",
          "type": "string"
        }
      ],
      "name": "setURI",
      "outputs": [],
      "stateMutability": "nonpayable",
      "type": "function"
    },
    {
      "inputs": [
        {
          "internalType": "bytes4",
          "name": "interfaceId",
          "type": "bytes4"
        }
      ],
      "name": "supportsInterface",
      "outputs": [
        {
          "internalType": "bool",
          "name": "",
          "type": "bool"
        }
      ],
      "stateMutability": "view",
      "type": "function"
    },
    {
      "inputs": [
        {
          "internalType": "uint256",
          "name": "id",
          "type": "uint256"
        }
      ],
      "name": "totalSupply",
      "outputs": [
        {
          "internalType": "uint256",
          "name": "",
          "type": "uint256"
        }
      ],
      "stateMutability": "view",
      "type": "function"
    },
    {
      "inputs": [
        {
          "internalType": "address",
          "name": "newOwner",
          "type": "address"
        }
      ],
      "name": "transferOwnership",
      "outputs": [],
      "stateMutability": "nonpayable",
      "type": "function"
    },
    {
      "inputs": [
        {
          "internalType": "uint256",
          "name": "tokenId",
          "type": "uint256"
        }
      ],
      "name": "uri",
      "outputs": [
        {
          "internalType": "string",
          "name": "",
          "type": "string"
        }
      ],
      "stateMutability": "view",
      "type": "function"
    }
  ],
  "transactionHash": "0xae467b571ade0322753a0bd0c1df90c2213b945b62cda115c9c5a718b4f6cb3a",
  "args": [
    "0xa995AE28b9cFf206C3971D1887cc934FC48e3a0F",
    "https://opensea-creatures-api.herokuapp.com/api/creature/"
  ],
  "bytecode": "0x60c0604052601360808190527f544576657231313535206f6e206d756d6261690000000000000000000000000060a0908152620000409160059190620004b6565b503480156200004e57600080fd5b50604051620027d8380380620027d883398101604081905262000071916200055c565b806200007d81620000c7565b50620000926200008c620000e0565b620000e5565b60408051600080825260208201909252620000b4918491620f42409062000137565b620000bf826200017b565b5050620009b7565b8051620000dc906002906020840190620004b6565b5050565b335b90565b600480546001600160a01b038381166001600160a01b0319831681179093556040519116919082907f8be0079c531659141344cd1fd0a4f28419497f9722a3daafe3b4186f6b6457e090600090a35050565b62000150848484846200020160201b6200087e1760201c565b600083815260036020526040812080548492906200017090849062000856565b909155505050505050565b62000185620000e0565b6001600160a01b03166200019862000308565b6001600160a01b031614620001ca5760405162461bcd60e51b8152600401620001c190620007d2565b60405180910390fd5b6001600160a01b038116620001f35760405162461bcd60e51b8152600401620001c1906200078c565b620001fe81620000e5565b50565b6001600160a01b0384166200022a5760405162461bcd60e51b8152600401620001c19062000807565b600062000236620000e0565b90506200025d816000876200024b8862000317565b620002568862000317565b8762000371565b6000848152602081815260408083206001600160a01b0389168452909152812080548592906200028f90849062000856565b92505081905550846001600160a01b031660006001600160a01b0316826001600160a01b03167fc3d58168c5ae7397731d063d5bbf3d657854427343f4c083240f7aacaa2d0f628787604051620002e892919062000848565b60405180910390a4620003018160008787878762000379565b5050505050565b6004546001600160a01b031690565b604080516001808252818301909252606091600091906020808301908036833701905050905082816000815181106200036057634e487b7160e01b600052603260045260246000fd5b602090810291909101015292915050565b505050505050565b62000398846001600160a01b0316620004b060201b6200096d1760201c565b15620003715760405163f23a6e6160e01b81526001600160a01b0385169063f23a6e6190620003d490899089908890889088906004016200068b565b602060405180830381600087803b158015620003ef57600080fd5b505af192505050801562000422575060408051601f3d908101601f191682019092526200041f918101906200062c565b60015b62000474576200043162000907565b806200043e57506200045a565b8060405162461bcd60e51b8152600401620001c19190620006d2565b60405162461bcd60e51b8152600401620001c190620006e7565b6001600160e01b0319811663f23a6e6160e01b14620004a75760405162461bcd60e51b8152600401620001c19062000744565b50505050505050565b3b151590565b828054620004c490620008ae565b90600052602060002090601f016020900481019282620004e8576000855562000533565b82601f106200050357805160ff191683800117855562000533565b8280016001018555821562000533579182015b828111156200053357825182559160200191906001019062000516565b506200054192915062000545565b5090565b5b8082111562000541576000815560010162000546565b600080604083850312156200056f578182fd5b82516001600160a01b038116811462000586578283fd5b60208401519092506001600160401b0380821115620005a3578283fd5b818501915085601f830112620005b7578283fd5b815181811115620005cc57620005cc620008eb565b604051601f8201601f191681016020018381118282101715620005f357620005f3620008eb565b6040528181528382016020018810156200060b578485fd5b6200061e8260208301602087016200087b565b809450505050509250929050565b6000602082840312156200063e578081fd5b81516001600160e01b03198116811462000656578182fd5b9392505050565b60008151808452620006778160208601602086016200087b565b601f01601f19169290920160200192915050565b6001600160a01b03868116825285166020820152604081018490526060810183905260a060808201819052600090620006c7908301846200065d565b979650505050505050565b6000602082526200065660208301846200065d565b60208082526034908201527f455243313135353a207472616e7366657220746f206e6f6e204552433131353560408201527f526563656976657220696d706c656d656e746572000000000000000000000000606082015260800190565b60208082526028908201527f455243313135353a204552433131353552656365697665722072656a656374656040820152676420746f6b656e7360c01b606082015260800190565b60208082526026908201527f4f776e61626c653a206e6577206f776e657220697320746865207a65726f206160408201526564647265737360d01b606082015260800190565b6020808252818101527f4f776e61626c653a2063616c6c6572206973206e6f7420746865206f776e6572604082015260600190565b60208082526021908201527f455243313135353a206d696e7420746f20746865207a65726f206164647265736040820152607360f81b606082015260800190565b918252602082015260400190565b600082198211156200087657634e487b7160e01b81526011600452602481fd5b500190565b60005b83811015620008985781810151838201526020016200087e565b83811115620008a8576000848401525b50505050565b600281046001821680620008c357607f821691505b60208210811415620008e557634e487b7160e01b600052602260045260246000fd5b50919050565b634e487b7160e01b600052604160045260246000fd5b60e01c90565b600060443d10156200091957620000e2565b600481823e6308c379a06200092f825162000901565b146200093b57620000e2565b6040513d600319016004823e80513d6001600160401b0380831160248401831017156200096c5750505050620000e2565b82840192508251915080821115620009885750505050620000e2565b503d83016020828401011115620009a257505050620000e2565b601f01601f1916810160200160405291505090565b611e1180620009c76000396000f3fe608060405234801561001057600080fd5b50600436106100ff5760003560e01c80634f558e7911610097578063bd85b03911610066578063bd85b03914610213578063e985e9c514610226578063f242432a14610239578063f2fde38b1461024c576100ff565b80634f558e79146101d0578063715018a6146101e35780638da5cb5b146101eb578063a22cb46514610200576100ff565b80630e89341c116100d35780630e89341c14610177578063156e29f61461018a5780632eb2c2d61461019d5780634e1273f4146101b0576100ff565b8062fdd58e1461010457806301ffc9a71461012d57806302fe53051461014d57806306fdde0314610162575b600080fd5b61011761011236600461144b565b61025f565b6040516101249190611b96565b60405180910390f35b61014061013b366004611564565b6102b6565b6040516101249190611787565b61016061015b36600461159c565b6102fe565b005b61016a610349565b6040516101249190611792565b61016a6101853660046115e2565b6103d7565b610160610198366004611474565b61045d565b6101606101ab366004611308565b6104bf565b6101c36101be3660046114a6565b61051d565b6040516101249190611746565b6101406101de3660046115e2565b61063d565b610160610650565b6101f361069b565b604051610124919061168f565b61016061020e366004611411565b6106ab565b6101176102213660046115e2565b610779565b6101406102343660046112d6565b61078b565b6101606102473660046113ae565b6107b9565b61016061025a3660046112bc565b610810565b60006001600160a01b0383166102905760405162461bcd60e51b81526004016102879061188b565b60405180910390fd5b506000908152602081815260408083206001600160a01b03949094168352929052205490565b60006001600160e01b03198216636cdb3d1360e11b14806102e757506001600160e01b031982166303a24d0760e21b145b806102f657506102f682610973565b90505b919050565b61030661098c565b6001600160a01b031661031761069b565b6001600160a01b03161461033d5760405162461bcd60e51b815260040161028790611a46565b61034681610990565b50565b6005805461035690611c6e565b80601f016020809104026020016040519081016040528092919081815260200182805461038290611c6e565b80156103cf5780601f106103a4576101008083540402835291602001916103cf565b820191906000526020600020905b8154815290600101906020018083116103b257829003601f168201915b505050505081565b60606103e28261063d565b6103fe5760405162461bcd60e51b815260040161028790611841565b6000610409836109a7565b511161042457604051806020016040528060008152506102f6565b61042d826109a7565b61043683610a3b565b604051602001610447929190611660565b6040516020818303038152906040529050919050565b61046561098c565b6001600160a01b031661047661069b565b6001600160a01b03161461049c5760405162461bcd60e51b815260040161028790611a46565b6040805160008152602081019091526104ba90849084908490610b5e565b505050565b6104c761098c565b6001600160a01b0316856001600160a01b031614806104ed57506104ed8561023461098c565b6105095760405162461bcd60e51b8152600401610287906119aa565b6105168585858585610b93565b5050505050565b606081518351146105405760405162461bcd60e51b815260040161028790611ac4565b6000835167ffffffffffffffff81111561056a57634e487b7160e01b600052604160045260246000fd5b604051908082528060200260200182016040528015610593578160200160208202803683370190505b50905060005b8451811015610635576105fa8582815181106105c557634e487b7160e01b600052603260045260246000fd5b60200260200101518583815181106105ed57634e487b7160e01b600052603260045260246000fd5b602002602001015161025f565b82828151811061061a57634e487b7160e01b600052603260045260246000fd5b602090810291909101015261062e81611ca9565b9050610599565b509392505050565b60008061064983610779565b1192915050565b61065861098c565b6001600160a01b031661066961069b565b6001600160a01b03161461068f5760405162461bcd60e51b815260040161028790611a46565b6106996000610d64565b565b6004546001600160a01b03165b90565b816001600160a01b03166106bd61098c565b6001600160a01b031614156106e45760405162461bcd60e51b815260040161028790611a7b565b80600160006106f161098c565b6001600160a01b03908116825260208083019390935260409182016000908120918716808252919093529120805460ff19169215159290921790915561073561098c565b6001600160a01b03167f17307eab39ab6107e8899845ad3d59bd9653f200f220920489ca2b5937696c318360405161076d9190611787565b60405180910390a35050565b60009081526003602052604090205490565b6001600160a01b03918216600090815260016020908152604080832093909416825291909152205460ff1690565b6107c161098c565b6001600160a01b0316856001600160a01b031614806107e757506107e78561023461098c565b6108035760405162461bcd60e51b81526004016102879061191c565b6105168585858585610db6565b61081861098c565b6001600160a01b031661082961069b565b6001600160a01b03161461084f5760405162461bcd60e51b815260040161028790611a46565b6001600160a01b0381166108755760405162461bcd60e51b8152600401610287906118d6565b61034681610d64565b6001600160a01b0384166108a45760405162461bcd60e51b815260040161028790611b55565b60006108ae61098c565b90506108cf816000876108c088610eea565b6108c988610eea565b87610d5c565b6000848152602081815260408083206001600160a01b0389168452909152812080548592906108ff908490611bfb565b92505081905550846001600160a01b031660006001600160a01b0316826001600160a01b03167fc3d58168c5ae7397731d063d5bbf3d657854427343f4c083240f7aacaa2d0f628787604051610956929190611b9f565b60405180910390a461051681600087878787610f43565b3b151590565b6001600160e01b031981166301ffc9a760e01b14919050565b3390565b80516109a3906002906020840190611122565b5050565b6060600280546109b690611c6e565b80601f01602080910402602001604051908101604052809291908181526020018280546109e290611c6e565b8015610a2f5780601f10610a0457610100808354040283529160200191610a2f565b820191906000526020600020905b815481529060010190602001808311610a1257829003601f168201915b50505050509050919050565b606081610a6057506040805180820190915260018152600360fc1b60208201526102f9565b8160005b8115610a8a5780610a7481611ca9565b9150610a839050600a83611c13565b9150610a64565b60008167ffffffffffffffff811115610ab357634e487b7160e01b600052604160045260246000fd5b6040519080825280601f01601f191660200182016040528015610add576020820181803683370190505b5090505b8415610b5657610af2600183611c27565b9150610aff600a86611cc4565b610b0a906030611bfb565b60f81b818381518110610b2d57634e487b7160e01b600052603260045260246000fd5b60200101906001600160f81b031916908160001a905350610b4f600a86611c13565b9450610ae1565b949350505050565b610b6a8484848461087e565b60008381526003602052604081208054849290610b88908490611bfb565b909155505050505050565b8151835114610bb45760405162461bcd60e51b815260040161028790611b0d565b6001600160a01b038416610bda5760405162461bcd60e51b815260040161028790611965565b6000610be461098c565b9050610bf4818787878787610d5c565b60005b8451811015610cf6576000858281518110610c2257634e487b7160e01b600052603260045260246000fd5b602002602001015190506000858381518110610c4e57634e487b7160e01b600052603260045260246000fd5b602090810291909101810151600084815280835260408082206001600160a01b038e168352909352919091205490915081811015610c9e5760405162461bcd60e51b8152600401610287906119fc565b6000838152602081815260408083206001600160a01b038e8116855292528083208585039055908b16825281208054849290610cdb908490611bfb565b9250508190555050505080610cef90611ca9565b9050610bf7565b50846001600160a01b0316866001600160a01b0316826001600160a01b03167f4a39dc06d4c0dbc64b70af90fd698a233a518aa5d07e595d983b8c0526c8f7fb8787604051610d46929190611759565b60405180910390a4610d5c818787878787611051565b505050505050565b600480546001600160a01b038381166001600160a01b0319831681179093556040519116919082907f8be0079c531659141344cd1fd0a4f28419497f9722a3daafe3b4186f6b6457e090600090a35050565b6001600160a01b038416610ddc5760405162461bcd60e51b815260040161028790611965565b6000610de661098c565b9050610df78187876108c088610eea565b6000848152602081815260408083206001600160a01b038a16845290915290205483811015610e385760405162461bcd60e51b8152600401610287906119fc565b6000858152602081815260408083206001600160a01b038b8116855292528083208785039055908816825281208054869290610e75908490611bfb565b92505081905550856001600160a01b0316876001600160a01b0316836001600160a01b03167fc3d58168c5ae7397731d063d5bbf3d657854427343f4c083240f7aacaa2d0f628888604051610ecb929190611b9f565b60405180910390a4610ee1828888888888610f43565b50505050505050565b60408051600180825281830190925260609160009190602080830190803683370190505090508281600081518110610f3257634e487b7160e01b600052603260045260246000fd5b602090810291909101015292915050565b610f55846001600160a01b031661096d565b15610d5c5760405163f23a6e6160e01b81526001600160a01b0385169063f23a6e6190610f8e9089908990889088908890600401611701565b602060405180830381600087803b158015610fa857600080fd5b505af1925050508015610fd8575060408051601f3d908101601f19168201909252610fd591810190611580565b60015b61102157610fe4611d20565b80610fef5750611009565b8060405162461bcd60e51b81526004016102879190611792565b60405162461bcd60e51b8152600401610287906117a5565b6001600160e01b0319811663f23a6e6160e01b14610ee15760405162461bcd60e51b8152600401610287906117f9565b611063846001600160a01b031661096d565b15610d5c5760405163bc197c8160e01b81526001600160a01b0385169063bc197c819061109c90899089908890889088906004016116a3565b602060405180830381600087803b1580156110b657600080fd5b505af19250505080156110e6575060408051601f3d908101601f191682019092526110e391810190611580565b60015b6110f257610fe4611d20565b6001600160e01b0319811663bc197c8160e01b14610ee15760405162461bcd60e51b8152600401610287906117f9565b82805461112e90611c6e565b90600052602060002090601f0160209004810192826111505760008555611196565b82601f1061116957805160ff1916838001178555611196565b82800160010185558215611196579182015b8281111561119657825182559160200191906001019061117b565b506111a29291506111a6565b5090565b5b808211156111a257600081556001016111a7565b600067ffffffffffffffff8311156111d5576111d5611d04565b6111e8601f8401601f1916602001611bad565b90508281528383830111156111fc57600080fd5b828260208301376000602084830101529392505050565b80356001600160a01b03811681146102f957600080fd5b600082601f83011261123a578081fd5b8135602061124f61124a83611bd7565b611bad565b828152818101908583018385028701840188101561126b578586fd5b855b858110156112895781358452928401929084019060010161126d565b5090979650505050505050565b600082601f8301126112a6578081fd5b6112b5838335602085016111bb565b9392505050565b6000602082840312156112cd578081fd5b6112b582611213565b600080604083850312156112e8578081fd5b6112f183611213565b91506112ff60208401611213565b90509250929050565b600080600080600060a0868803121561131f578081fd5b61132886611213565b945061133660208701611213565b9350604086013567ffffffffffffffff80821115611352578283fd5b61135e89838a0161122a565b94506060880135915080821115611373578283fd5b61137f89838a0161122a565b93506080880135915080821115611394578283fd5b506113a188828901611296565b9150509295509295909350565b600080600080600060a086880312156113c5578081fd5b6113ce86611213565b94506113dc60208701611213565b93506040860135925060608601359150608086013567ffffffffffffffff811115611405578182fd5b6113a188828901611296565b60008060408385031215611423578182fd5b61142c83611213565b915060208301358015158114611440578182fd5b809150509250929050565b6000806040838503121561145d578182fd5b61146683611213565b946020939093013593505050565b600080600060608486031215611488578283fd5b61149184611213565b95602085013595506040909401359392505050565b600080604083850312156114b8578182fd5b823567ffffffffffffffff808211156114cf578384fd5b818501915085601f8301126114e2578384fd5b813560206114f261124a83611bd7565b82815281810190858301838502870184018b101561150e578889fd5b8896505b848710156115375761152381611213565b835260019690960195918301918301611512565b509650508601359250508082111561154d578283fd5b5061155a8582860161122a565b9150509250929050565b600060208284031215611575578081fd5b81356112b581611dc5565b600060208284031215611591578081fd5b81516112b581611dc5565b6000602082840312156115ad578081fd5b813567ffffffffffffffff8111156115c3578182fd5b8201601f810184136115d3578182fd5b610b56848235602084016111bb565b6000602082840312156115f3578081fd5b5035919050565b6000815180845260208085019450808401835b838110156116295781518752958201959082019060010161160d565b509495945050505050565b6000815180845261164c816020860160208601611c3e565b601f01601f19169290920160200192915050565b60008351611672818460208801611c3e565b835190830190611686818360208801611c3e565b01949350505050565b6001600160a01b0391909116815260200190565b6001600160a01b0386811682528516602082015260a0604082018190526000906116cf908301866115fa565b82810360608401526116e181866115fa565b905082810360808401526116f58185611634565b98975050505050505050565b6001600160a01b03868116825285166020820152604081018490526060810183905260a06080820181905260009061173b90830184611634565b979650505050505050565b6000602082526112b560208301846115fa565b60006040825261176c60408301856115fa565b828103602084015261177e81856115fa565b95945050505050565b901515815260200190565b6000602082526112b56020830184611634565b60208082526034908201527f455243313135353a207472616e7366657220746f206e6f6e20455243313135356040820152732932b1b2b4bb32b91034b6b83632b6b2b73a32b960611b606082015260800190565b60208082526028908201527f455243313135353a204552433131353552656365697665722072656a656374656040820152676420746f6b656e7360c01b606082015260800190565b6020808252602a908201527f5445766572313135353a2055524920717565727920666f72206e6f6e657869736040820152693a32b73a103a37b5b2b760b11b606082015260800190565b6020808252602b908201527f455243313135353a2062616c616e636520717565727920666f7220746865207a60408201526a65726f206164647265737360a81b606082015260800190565b60208082526026908201527f4f776e61626c653a206e6577206f776e657220697320746865207a65726f206160408201526564647265737360d01b606082015260800190565b60208082526029908201527f455243313135353a2063616c6c6572206973206e6f74206f776e6572206e6f7260408201526808185c1c1c9bdd995960ba1b606082015260800190565b60208082526025908201527f455243313135353a207472616e7366657220746f20746865207a65726f206164604082015264647265737360d81b606082015260800190565b60208082526032908201527f455243313135353a207472616e736665722063616c6c6572206973206e6f74206040820152711bdddb995c881b9bdc88185c1c1c9bdd995960721b606082015260800190565b6020808252602a908201527f455243313135353a20696e73756666696369656e742062616c616e636520666f60408201526939103a3930b739b332b960b11b606082015260800190565b6020808252818101527f4f776e61626c653a2063616c6c6572206973206e6f7420746865206f776e6572604082015260600190565b60208082526029908201527f455243313135353a2073657474696e6720617070726f76616c20737461747573604082015268103337b91039b2b63360b91b606082015260800190565b60208082526029908201527f455243313135353a206163636f756e747320616e6420696473206c656e677468604082015268040dad2e6dac2e8c6d60bb1b606082015260800190565b60208082526028908201527f455243313135353a2069647320616e6420616d6f756e7473206c656e677468206040820152670dad2e6dac2e8c6d60c31b606082015260800190565b60208082526021908201527f455243313135353a206d696e7420746f20746865207a65726f206164647265736040820152607360f81b606082015260800190565b90815260200190565b918252602082015260400190565b60405181810167ffffffffffffffff81118282101715611bcf57611bcf611d04565b604052919050565b600067ffffffffffffffff821115611bf157611bf1611d04565b5060209081020190565b60008219821115611c0e57611c0e611cd8565b500190565b600082611c2257611c22611cee565b500490565b600082821015611c3957611c39611cd8565b500390565b60005b83811015611c59578181015183820152602001611c41565b83811115611c68576000848401525b50505050565b600281046001821680611c8257607f821691505b60208210811415611ca357634e487b7160e01b600052602260045260246000fd5b50919050565b6000600019821415611cbd57611cbd611cd8565b5060010190565b600082611cd357611cd3611cee565b500690565b634e487b7160e01b600052601160045260246000fd5b634e487b7160e01b600052601260045260246000fd5b634e487b7160e01b600052604160045260246000fd5b60e01c90565b600060443d1015611d30576106a8565b600481823e6308c379a0611d448251611d1a565b14611d4e576106a8565b6040513d600319016004823e80513d67ffffffffffffffff8160248401118184111715611d7e57505050506106a8565b82840192508251915080821115611d9857505050506106a8565b503d83016020828401011115611db0575050506106a8565b601f01601f1916810160200160405291505090565b6001600160e01b03198116811461034657600080fdfea2646970667358221220ad52a4ba9f1d4bcfcc1a3a3ff1017c9e77d665d5b36ef6c66cd3bb3f651d6bbd64736f6c63430008000033"
}