{
  "address": "0x01983871FFc0A99c594AD34bF8c8C2e1619B74DB",
  "abi": [
    {
      "inputs": [
        {
          "internalType": "address",
          "name": "owner",
          "type": "address"
        }
      ],
      "stateMutability": "nonpayable",
      "type": "constructor"
    },
    {
      "anonymous": false,
      "inputs": [
        {
          "indexed": true,
          "internalType": "address",
          "name": "account",
          "type": "address"
        },
        {
          "indexed": true,
          "internalType": "address",
          "name": "operator",
          "type": "address"
        },
        {
          "indexed": false,
          "internalType": "bool",
          "name": "approved",
          "type": "bool"
        }
      ],
      "name": "ApprovalForAll",
      "type": "event"
    },
    {
      "anonymous": false,
      "inputs": [
        {
          "indexed": true,
          "internalType": "address",
          "name": "previousOwner",
          "type": "address"
        },
        {
          "indexed": true,
          "internalType": "address",
          "name": "newOwner",
          "type": "address"
        }
      ],
      "name": "OwnershipTransferred",
      "type": "event"
    },
    {
      "anonymous": false,
      "inputs": [
        {
          "indexed": false,
          "internalType": "string",
          "name": "_value",
          "type": "string"
        },
        {
          "indexed": true,
          "internalType": "uint256",
          "name": "_id",
          "type": "uint256"
        }
      ],
      "name": "PermanentURI",
      "type": "event"
    },
    {
      "anonymous": false,
      "inputs": [
        {
          "indexed": true,
          "internalType": "address",
          "name": "operator",
          "type": "address"
        },
        {
          "indexed": true,
          "internalType": "address",
          "name": "from",
          "type": "address"
        },
        {
          "indexed": true,
          "internalType": "address",
          "name": "to",
          "type": "address"
        },
        {
          "indexed": false,
          "internalType": "uint256[]",
          "name": "ids",
          "type": "uint256[]"
        },
        {
          "indexed": false,
          "internalType": "uint256[]",
          "name": "values",
          "type": "uint256[]"
        }
      ],
      "name": "TransferBatch",
      "type": "event"
    },
    {
      "anonymous": false,
      "inputs": [
        {
          "indexed": true,
          "internalType": "address",
          "name": "operator",
          "type": "address"
        },
        {
          "indexed": true,
          "internalType": "address",
          "name": "from",
          "type": "address"
        },
        {
          "indexed": true,
          "internalType": "address",
          "name": "to",
          "type": "address"
        },
        {
          "indexed": false,
          "internalType": "uint256",
          "name": "id",
          "type": "uint256"
        },
        {
          "indexed": false,
          "internalType": "uint256",
          "name": "value",
          "type": "uint256"
        }
      ],
      "name": "TransferSingle",
      "type": "event"
    },
    {
      "anonymous": false,
      "inputs": [
        {
          "indexed": false,
          "internalType": "string",
          "name": "value",
          "type": "string"
        },
        {
          "indexed": true,
          "internalType": "uint256",
          "name": "id",
          "type": "uint256"
        }
      ],
      "name": "URI",
      "type": "event"
    },
    {
      "inputs": [
        {
          "internalType": "address",
          "name": "account",
          "type": "address"
        },
        {
          "internalType": "uint256",
          "name": "id",
          "type": "uint256"
        }
      ],
      "name": "balanceOf",
      "outputs": [
        {
          "internalType": "uint256",
          "name": "",
          "type": "uint256"
        }
      ],
      "stateMutability": "view",
      "type": "function"
    },
    {
      "inputs": [
        {
          "internalType": "address[]",
          "name": "accounts",
          "type": "address[]"
        },
        {
          "internalType": "uint256[]",
          "name": "ids",
          "type": "uint256[]"
        }
      ],
      "name": "balanceOfBatch",
      "outputs": [
        {
          "internalType": "uint256[]",
          "name": "",
          "type": "uint256[]"
        }
      ],
      "stateMutability": "view",
      "type": "function"
    },
    {
      "inputs": [
        {
          "internalType": "uint256",
          "name": "",
          "type": "uint256"
        }
      ],
      "name": "customUris",
      "outputs": [
        {
          "internalType": "string",
          "name": "",
          "type": "string"
        }
      ],
      "stateMutability": "view",
      "type": "function"
    },
    {
      "inputs": [
        {
          "internalType": "uint256",
          "name": "id",
          "type": "uint256"
        }
      ],
      "name": "exists",
      "outputs": [
        {
          "internalType": "bool",
          "name": "",
          "type": "bool"
        }
      ],
      "stateMutability": "view",
      "type": "function"
    },
    {
      "inputs": [
        {
          "internalType": "address",
          "name": "account",
          "type": "address"
        },
        {
          "internalType": "address",
          "name": "operator",
          "type": "address"
        }
      ],
      "name": "isApprovedForAll",
      "outputs": [
        {
          "internalType": "bool",
          "name": "",
          "type": "bool"
        }
      ],
      "stateMutability": "view",
      "type": "function"
    },
    {
      "inputs": [
        {
          "internalType": "address",
          "name": "to",
          "type": "address"
        },
        {
          "internalType": "uint256",
          "name": "tokenId",
          "type": "uint256"
        },
        {
          "internalType": "uint256",
          "name": "amount",
          "type": "uint256"
        },
        {
          "internalType": "string",
          "name": "tokenUri",
          "type": "string"
        },
        {
          "internalType": "bytes",
          "name": "data",
          "type": "bytes"
        }
      ],
      "name": "mint",
      "outputs": [],
      "stateMutability": "nonpayable",
      "type": "function"
    },
    {
      "inputs": [],
      "name": "name",
      "outputs": [
        {
          "internalType": "string",
          "name": "",
          "type": "string"
        }
      ],
      "stateMutability": "view",
      "type": "function"
    },
    {
      "inputs": [],
      "name": "owner",
      "outputs": [
        {
          "internalType": "address",
          "name": "",
          "type": "address"
        }
      ],
      "stateMutability": "view",
      "type": "function"
    },
    {
      "inputs": [],
      "name": "renounceOwnership",
      "outputs": [],
      "stateMutability": "nonpayable",
      "type": "function"
    },
    {
      "inputs": [
        {
          "internalType": "address",
          "name": "from",
          "type": "address"
        },
        {
          "internalType": "address",
          "name": "to",
          "type": "address"
        },
        {
          "internalType": "uint256[]",
          "name": "ids",
          "type": "uint256[]"
        },
        {
          "internalType": "uint256[]",
          "name": "amounts",
          "type": "uint256[]"
        },
        {
          "internalType": "bytes",
          "name": "data",
          "type": "bytes"
        }
      ],
      "name": "safeBatchTransferFrom",
      "outputs": [],
      "stateMutability": "nonpayable",
      "type": "function"
    },
    {
      "inputs": [
        {
          "internalType": "address",
          "name": "from",
          "type": "address"
        },
        {
          "internalType": "address",
          "name": "to",
          "type": "address"
        },
        {
          "internalType": "uint256",
          "name": "id",
          "type": "uint256"
        },
        {
          "internalType": "uint256",
          "name": "amount",
          "type": "uint256"
        },
        {
          "internalType": "bytes",
          "name": "data",
          "type": "bytes"
        }
      ],
      "name": "safeTransferFrom",
      "outputs": [],
      "stateMutability": "nonpayable",
      "type": "function"
    },
    {
      "inputs": [
        {
          "internalType": "address",
          "name": "operator",
          "type": "address"
        },
        {
          "internalType": "bool",
          "name": "approved",
          "type": "bool"
        }
      ],
      "name": "setApprovalForAll",
      "outputs": [],
      "stateMutability": "nonpayable",
      "type": "function"
    },
    {
      "inputs": [
        {
          "internalType": "uint256",
          "name": "tokenId",
          "type": "uint256"
        },
        {
          "internalType": "string",
          "name": "tokenUri",
          "type": "string"
        }
      ],
      "name": "setCustomUri",
      "outputs": [],
      "stateMutability": "nonpayable",
      "type": "function"
    },
    {
      "inputs": [
        {
          "internalType": "bytes4",
          "name": "interfaceId",
          "type": "bytes4"
        }
      ],
      "name": "supportsInterface",
      "outputs": [
        {
          "internalType": "bool",
          "name": "",
          "type": "bool"
        }
      ],
      "stateMutability": "view",
      "type": "function"
    },
    {
      "inputs": [
        {
          "internalType": "uint256",
          "name": "id",
          "type": "uint256"
        }
      ],
      "name": "totalSupply",
      "outputs": [
        {
          "internalType": "uint256",
          "name": "",
          "type": "uint256"
        }
      ],
      "stateMutability": "view",
      "type": "function"
    },
    {
      "inputs": [
        {
          "internalType": "address",
          "name": "newOwner",
          "type": "address"
        }
      ],
      "name": "transferOwnership",
      "outputs": [],
      "stateMutability": "nonpayable",
      "type": "function"
    },
    {
      "inputs": [
        {
          "internalType": "uint256",
          "name": "tokenId",
          "type": "uint256"
        }
      ],
      "name": "uri",
      "outputs": [
        {
          "internalType": "string",
          "name": "",
          "type": "string"
        }
      ],
      "stateMutability": "view",
      "type": "function"
    }
  ],
  "transactionHash": "0xb6d1aed07bf87d59001b11dd3282c3fc7306533dbb3847768055d0ad19f089f8",
  "args": [
    "0xa995AE28b9cFf206C3971D1887cc934FC48e3a0F"
  ],
  "bytecode": "0x60c060405260056080819052642a22bb32b960d91b60a0908152620000269190816200019c565b503480156200003457600080fd5b506040516200205f3803806200205f833981016040819052620000579162000242565b604080516020810190915260008152620000718162000098565b506200008662000080620000b1565b620000b5565b620000918162000107565b506200032a565b8051620000ad9060029060208401906200019c565b5050565b3390565b600480546001600160a01b038381166001600160a01b0319831681179093556040519116919082907f8be0079c531659141344cd1fd0a4f28419497f9722a3daafe3b4186f6b6457e090600090a35050565b62000111620000b1565b6001600160a01b0316620001246200018d565b6001600160a01b031614620001565760405162461bcd60e51b81526004016200014d90620002b8565b60405180910390fd5b6001600160a01b0381166200017f5760405162461bcd60e51b81526004016200014d9062000272565b6200018a81620000b5565b50565b6004546001600160a01b031690565b828054620001aa90620002ed565b90600052602060002090601f016020900481019282620001ce576000855562000219565b82601f10620001e957805160ff191683800117855562000219565b8280016001018555821562000219579182015b8281111562000219578251825591602001919060010190620001fc565b50620002279291506200022b565b5090565b5b808211156200022757600081556001016200022c565b60006020828403121562000254578081fd5b81516001600160a01b03811681146200026b578182fd5b9392505050565b60208082526026908201527f4f776e61626c653a206e6577206f776e657220697320746865207a65726f206160408201526564647265737360d01b606082015260800190565b6020808252818101527f4f776e61626c653a2063616c6c6572206973206e6f7420746865206f776e6572604082015260600190565b6002810460018216806200030257607f821691505b602082108114156200032457634e487b7160e01b600052602260045260246000fd5b50919050565b611d25806200033a6000396000f3fe608060405234801561001057600080fd5b506004361061010a5760003560e01c80638da5cb5b116100a2578063e34c50ee11610071578063e34c50ee1461021e578063e985e9c514610231578063eed3a1ae14610244578063f242432a14610257578063f2fde38b1461026a5761010a565b80638da5cb5b146101d0578063a22cb465146101e5578063a4b645eb146101f8578063bd85b0391461020b5761010a565b80632eb2c2d6116100de5780632eb2c2d6146101805780634e1273f4146101955780634f558e79146101b5578063715018a6146101c85761010a565b8062fdd58e1461010f57806301ffc9a71461013857806306fdde03146101585780630e89341c1461016d575b600080fd5b61012261011d366004611381565b61027d565b60405161012f9190611b2f565b60405180910390f35b61014b61014636600461151c565b6102d4565b60405161012f9190611724565b61016061031c565b60405161012f919061172f565b61016061017b366004611554565b6103aa565b61019361018e36600461123e565b61046f565b005b6101a86101a336600461145e565b6104cd565b60405161012f91906116e3565b61014b6101c3366004611554565b6105ed565b610193610600565b6101d861064b565b60405161012f919061162c565b6101936101f3366004611347565b61065b565b6101936102063660046113aa565b610729565b610122610219366004611554565b61080a565b61016061022c366004611554565b61081c565b61014b61023f36600461120c565b610835565b61019361025236600461156c565b610863565b6101936102653660046112e4565b6108c6565b6101936102783660046111eb565b61091d565b60006001600160a01b0383166102ae5760405162461bcd60e51b81526004016102a5906117de565b60405180910390fd5b506000908152602081815260408083206001600160a01b03949094168352929052205490565b60006001600160e01b03198216636cdb3d1360e11b148061030557506001600160e01b031982166303a24d0760e21b145b8061031457506103148261098e565b90505b919050565b6005805461032990611bac565b80601f016020809104026020016040519081016040528092919081815260200182805461035590611bac565b80156103a25780601f10610377576101008083540402835291602001916103a2565b820191906000526020600020905b81548152906001019060200180831161038557829003601f168201915b505050505081565b60606103b5826105ed565b6103d15760405162461bcd60e51b81526004016102a5906119ce565b600082815260066020526040902080546103ea90611bac565b80601f016020809104026020016040519081016040528092919081815260200182805461041690611bac565b80156104635780601f1061043857610100808354040283529160200191610463565b820191906000526020600020905b81548152906001019060200180831161044657829003601f168201915b50505050509050919050565b6104776109a7565b6001600160a01b0316856001600160a01b0316148061049d575061049d8561023f6109a7565b6104b95760405162461bcd60e51b81526004016102a5906118fd565b6104c685858585856109ab565b5050505050565b606081518351146104f05760405162461bcd60e51b81526004016102a590611a5d565b6000835167ffffffffffffffff81111561051a57634e487b7160e01b600052604160045260246000fd5b604051908082528060200260200182016040528015610543578160200160208202803683370190505b50905060005b84518110156105e5576105aa85828151811061057557634e487b7160e01b600052603260045260246000fd5b602002602001015185838151811061059d57634e487b7160e01b600052603260045260246000fd5b602002602001015161027d565b8282815181106105ca57634e487b7160e01b600052603260045260246000fd5b60209081029190910101526105de81611be7565b9050610549565b509392505050565b6000806105f98361080a565b1192915050565b6106086109a7565b6001600160a01b031661061961064b565b6001600160a01b03161461063f5760405162461bcd60e51b81526004016102a590611999565b6106496000610b7c565b565b6004546001600160a01b03165b90565b816001600160a01b031661066d6109a7565b6001600160a01b031614156106945760405162461bcd60e51b81526004016102a590611a14565b80600160006106a16109a7565b6001600160a01b03908116825260208083019390935260409182016000908120918716808252919093529120805460ff1916921515929092179091556106e56109a7565b6001600160a01b03167f17307eab39ab6107e8899845ad3d59bd9653f200f220920489ca2b5937696c318360405161071d9190611724565b60405180910390a35050565b6107316109a7565b6001600160a01b031661074261064b565b6001600160a01b0316146107685760405162461bcd60e51b81526004016102a590611999565b6000858152600660209081526040909120845161078792860190611064565b506107ca86868685858080601f016020809104026020016040519081016040528093929190818152602001838380828437600092019190915250610bce92505050565b847fa109ba539900bf1b633f956d63c96fc89b814c7287f7aa50a9216d0b55657207846040516107fa919061172f565b60405180910390a2505050505050565b60009081526003602052604090205490565b6006602052600090815260409020805461032990611bac565b6001600160a01b03918216600090815260016020908152604080832093909416825291909152205460ff1690565b61086b6109a7565b6001600160a01b031661087c61064b565b6001600160a01b0316146108a25760405162461bcd60e51b81526004016102a590611999565b600082815260066020908152604090912082516108c192840190611064565b505050565b6108ce6109a7565b6001600160a01b0316856001600160a01b031614806108f457506108f48561023f6109a7565b6109105760405162461bcd60e51b81526004016102a59061186f565b6104c68585858585610c03565b6109256109a7565b6001600160a01b031661093661064b565b6001600160a01b03161461095c5760405162461bcd60e51b81526004016102a590611999565b6001600160a01b0381166109825760405162461bcd60e51b81526004016102a590611829565b61098b81610b7c565b50565b6001600160e01b031981166301ffc9a760e01b14919050565b3390565b81518351146109cc5760405162461bcd60e51b81526004016102a590611aa6565b6001600160a01b0384166109f25760405162461bcd60e51b81526004016102a5906118b8565b60006109fc6109a7565b9050610a0c818787878787610b74565b60005b8451811015610b0e576000858281518110610a3a57634e487b7160e01b600052603260045260246000fd5b602002602001015190506000858381518110610a6657634e487b7160e01b600052603260045260246000fd5b602090810291909101810151600084815280835260408082206001600160a01b038e168352909352919091205490915081811015610ab65760405162461bcd60e51b81526004016102a59061194f565b6000838152602081815260408083206001600160a01b038e8116855292528083208585039055908b16825281208054849290610af3908490611b94565b9250508190555050505080610b0790611be7565b9050610a0f565b50846001600160a01b0316866001600160a01b0316826001600160a01b03167f4a39dc06d4c0dbc64b70af90fd698a233a518aa5d07e595d983b8c0526c8f7fb8787604051610b5e9291906116f6565b60405180910390a4610b74818787878787610d46565b505050505050565b600480546001600160a01b038381166001600160a01b0319831681179093556040519116919082907f8be0079c531659141344cd1fd0a4f28419497f9722a3daafe3b4186f6b6457e090600090a35050565b610bda84848484610e54565b60008381526003602052604081208054849290610bf8908490611b94565b909155505050505050565b6001600160a01b038416610c295760405162461bcd60e51b81526004016102a5906118b8565b6000610c336109a7565b9050610c53818787610c4488610f34565b610c4d88610f34565b87610b74565b6000848152602081815260408083206001600160a01b038a16845290915290205483811015610c945760405162461bcd60e51b81526004016102a59061194f565b6000858152602081815260408083206001600160a01b038b8116855292528083208785039055908816825281208054869290610cd1908490611b94565b92505081905550856001600160a01b0316876001600160a01b0316836001600160a01b03167fc3d58168c5ae7397731d063d5bbf3d657854427343f4c083240f7aacaa2d0f628888604051610d27929190611b38565b60405180910390a4610d3d828888888888610f8d565b50505050505050565b610d58846001600160a01b031661105e565b15610b745760405163bc197c8160e01b81526001600160a01b0385169063bc197c8190610d919089908990889088908890600401611640565b602060405180830381600087803b158015610dab57600080fd5b505af1925050508015610ddb575060408051601f3d908101601f19168201909252610dd891810190611538565b60015b610e2457610de7611c34565b80610df25750610e0c565b8060405162461bcd60e51b81526004016102a5919061172f565b60405162461bcd60e51b81526004016102a590611742565b6001600160e01b0319811663bc197c8160e01b14610d3d5760405162461bcd60e51b81526004016102a590611796565b6001600160a01b038416610e7a5760405162461bcd60e51b81526004016102a590611aee565b6000610e846109a7565b9050610e9681600087610c4488610f34565b6000848152602081815260408083206001600160a01b038916845290915281208054859290610ec6908490611b94565b92505081905550846001600160a01b031660006001600160a01b0316826001600160a01b03167fc3d58168c5ae7397731d063d5bbf3d657854427343f4c083240f7aacaa2d0f628787604051610f1d929190611b38565b60405180910390a46104c681600087878787610f8d565b60408051600180825281830190925260609160009190602080830190803683370190505090508281600081518110610f7c57634e487b7160e01b600052603260045260246000fd5b602090810291909101015292915050565b610f9f846001600160a01b031661105e565b15610b745760405163f23a6e6160e01b81526001600160a01b0385169063f23a6e6190610fd8908990899088908890889060040161169e565b602060405180830381600087803b158015610ff257600080fd5b505af1925050508015611022575060408051601f3d908101601f1916820190925261101f91810190611538565b60015b61102e57610de7611c34565b6001600160e01b0319811663f23a6e6160e01b14610d3d5760405162461bcd60e51b81526004016102a590611796565b3b151590565b82805461107090611bac565b90600052602060002090601f01602090048101928261109257600085556110d8565b82601f106110ab57805160ff19168380011785556110d8565b828001600101855582156110d8579182015b828111156110d85782518255916020019190600101906110bd565b506110e49291506110e8565b5090565b5b808211156110e457600081556001016110e9565b80356001600160a01b038116811461031757600080fd5b600082601f830112611124578081fd5b8135602061113961113483611b70565b611b46565b8281528181019085830183850287018401881015611155578586fd5b855b8581101561117357813584529284019290840190600101611157565b5090979650505050505050565b600082601f830112611190578081fd5b813567ffffffffffffffff8111156111aa576111aa611c18565b6111bd601f8201601f1916602001611b46565b8181528460208386010111156111d1578283fd5b816020850160208301379081016020019190915292915050565b6000602082840312156111fc578081fd5b611205826110fd565b9392505050565b6000806040838503121561121e578081fd5b611227836110fd565b9150611235602084016110fd565b90509250929050565b600080600080600060a08688031215611255578081fd5b61125e866110fd565b945061126c602087016110fd565b9350604086013567ffffffffffffffff80821115611288578283fd5b61129489838a01611114565b945060608801359150808211156112a9578283fd5b6112b589838a01611114565b935060808801359150808211156112ca578283fd5b506112d788828901611180565b9150509295509295909350565b600080600080600060a086880312156112fb578081fd5b611304866110fd565b9450611312602087016110fd565b93506040860135925060608601359150608086013567ffffffffffffffff81111561133b578182fd5b6112d788828901611180565b60008060408385031215611359578182fd5b611362836110fd565b915060208301358015158114611376578182fd5b809150509250929050565b60008060408385031215611393578182fd5b61139c836110fd565b946020939093013593505050565b60008060008060008060a087890312156113c2578081fd5b6113cb876110fd565b95506020870135945060408701359350606087013567ffffffffffffffff808211156113f5578283fd5b6114018a838b01611180565b94506080890135915080821115611416578283fd5b818901915089601f830112611429578283fd5b813581811115611437578384fd5b8a6020828501011115611448578384fd5b6020830194508093505050509295509295509295565b60008060408385031215611470578182fd5b823567ffffffffffffffff80821115611487578384fd5b818501915085601f83011261149a578384fd5b813560206114aa61113483611b70565b82815281810190858301838502870184018b10156114c6578889fd5b8896505b848710156114ef576114db816110fd565b8352600196909601959183019183016114ca565b5096505086013592505080821115611505578283fd5b5061151285828601611114565b9150509250929050565b60006020828403121561152d578081fd5b813561120581611cd9565b600060208284031215611549578081fd5b815161120581611cd9565b600060208284031215611565578081fd5b5035919050565b6000806040838503121561157e578182fd5b82359150602083013567ffffffffffffffff81111561159b578182fd5b61151285828601611180565b6000815180845260208085019450808401835b838110156115d6578151875295820195908201906001016115ba565b509495945050505050565b60008151808452815b81811015611606576020818501810151868301820152016115ea565b818111156116175782602083870101525b50601f01601f19169290920160200192915050565b6001600160a01b0391909116815260200190565b6001600160a01b0386811682528516602082015260a06040820181905260009061166c908301866115a7565b828103606084015261167e81866115a7565b9050828103608084015261169281856115e1565b98975050505050505050565b6001600160a01b03868116825285166020820152604081018490526060810183905260a0608082018190526000906116d8908301846115e1565b979650505050505050565b60006020825261120560208301846115a7565b60006040825261170960408301856115a7565b828103602084015261171b81856115a7565b95945050505050565b901515815260200190565b60006020825261120560208301846115e1565b60208082526034908201527f455243313135353a207472616e7366657220746f206e6f6e20455243313135356040820152732932b1b2b4bb32b91034b6b83632b6b2b73a32b960611b606082015260800190565b60208082526028908201527f455243313135353a204552433131353552656365697665722072656a656374656040820152676420746f6b656e7360c01b606082015260800190565b6020808252602b908201527f455243313135353a2062616c616e636520717565727920666f7220746865207a60408201526a65726f206164647265737360a81b606082015260800190565b60208082526026908201527f4f776e61626c653a206e6577206f776e657220697320746865207a65726f206160408201526564647265737360d01b606082015260800190565b60208082526029908201527f455243313135353a2063616c6c6572206973206e6f74206f776e6572206e6f7260408201526808185c1c1c9bdd995960ba1b606082015260800190565b60208082526025908201527f455243313135353a207472616e7366657220746f20746865207a65726f206164604082015264647265737360d81b606082015260800190565b60208082526032908201527f455243313135353a207472616e736665722063616c6c6572206973206e6f74206040820152711bdddb995c881b9bdc88185c1c1c9bdd995960721b606082015260800190565b6020808252602a908201527f455243313135353a20696e73756666696369656e742062616c616e636520666f60408201526939103a3930b739b332b960b11b606082015260800190565b6020808252818101527f4f776e61626c653a2063616c6c6572206973206e6f7420746865206f776e6572604082015260600190565b60208082526026908201527f54457665723a2055524920717565727920666f72206e6f6e6578697374656e74604082015265103a37b5b2b760d11b606082015260800190565b60208082526029908201527f455243313135353a2073657474696e6720617070726f76616c20737461747573604082015268103337b91039b2b63360b91b606082015260800190565b60208082526029908201527f455243313135353a206163636f756e747320616e6420696473206c656e677468604082015268040dad2e6dac2e8c6d60bb1b606082015260800190565b60208082526028908201527f455243313135353a2069647320616e6420616d6f756e7473206c656e677468206040820152670dad2e6dac2e8c6d60c31b606082015260800190565b60208082526021908201527f455243313135353a206d696e7420746f20746865207a65726f206164647265736040820152607360f81b606082015260800190565b90815260200190565b918252602082015260400190565b60405181810167ffffffffffffffff81118282101715611b6857611b68611c18565b604052919050565b600067ffffffffffffffff821115611b8a57611b8a611c18565b5060209081020190565b60008219821115611ba757611ba7611c02565b500190565b600281046001821680611bc057607f821691505b60208210811415611be157634e487b7160e01b600052602260045260246000fd5b50919050565b6000600019821415611bfb57611bfb611c02565b5060010190565b634e487b7160e01b600052601160045260246000fd5b634e487b7160e01b600052604160045260246000fd5b60e01c90565b600060443d1015611c4457610658565b600481823e6308c379a0611c588251611c2e565b14611c6257610658565b6040513d600319016004823e80513d67ffffffffffffffff8160248401118184111715611c925750505050610658565b82840192508251915080821115611cac5750505050610658565b503d83016020828401011115611cc457505050610658565b601f01601f1916810160200160405291505090565b6001600160e01b03198116811461098b57600080fdfea2646970667358221220352d1b425b83424700f15eb64ec68c74b4e85374310968150fa02244287ab4da64736f6c63430008000033"
}