{
  "address": "0xa98Ca3B8497b916b2Ae9f345BDE559A4Da4A0D2C",
  "abi": [
    {
      "inputs": [
        {
          "internalType": "address",
          "name": "owner",
          "type": "address"
        }
      ],
      "stateMutability": "nonpayable",
      "type": "constructor"
    },
    {
      "anonymous": false,
      "inputs": [
        {
          "indexed": true,
          "internalType": "address",
          "name": "account",
          "type": "address"
        },
        {
          "indexed": true,
          "internalType": "address",
          "name": "operator",
          "type": "address"
        },
        {
          "indexed": false,
          "internalType": "bool",
          "name": "approved",
          "type": "bool"
        }
      ],
      "name": "ApprovalForAll",
      "type": "event"
    },
    {
      "anonymous": false,
      "inputs": [
        {
          "indexed": true,
          "internalType": "address",
          "name": "previousOwner",
          "type": "address"
        },
        {
          "indexed": true,
          "internalType": "address",
          "name": "newOwner",
          "type": "address"
        }
      ],
      "name": "OwnershipTransferred",
      "type": "event"
    },
    {
      "anonymous": false,
      "inputs": [
        {
          "indexed": false,
          "internalType": "string",
          "name": "_value",
          "type": "string"
        },
        {
          "indexed": true,
          "internalType": "uint256",
          "name": "_id",
          "type": "uint256"
        }
      ],
      "name": "PermanentURI",
      "type": "event"
    },
    {
      "anonymous": false,
      "inputs": [
        {
          "indexed": true,
          "internalType": "address",
          "name": "operator",
          "type": "address"
        },
        {
          "indexed": true,
          "internalType": "address",
          "name": "from",
          "type": "address"
        },
        {
          "indexed": true,
          "internalType": "address",
          "name": "to",
          "type": "address"
        },
        {
          "indexed": false,
          "internalType": "uint256[]",
          "name": "ids",
          "type": "uint256[]"
        },
        {
          "indexed": false,
          "internalType": "uint256[]",
          "name": "values",
          "type": "uint256[]"
        }
      ],
      "name": "TransferBatch",
      "type": "event"
    },
    {
      "anonymous": false,
      "inputs": [
        {
          "indexed": true,
          "internalType": "address",
          "name": "operator",
          "type": "address"
        },
        {
          "indexed": true,
          "internalType": "address",
          "name": "from",
          "type": "address"
        },
        {
          "indexed": true,
          "internalType": "address",
          "name": "to",
          "type": "address"
        },
        {
          "indexed": false,
          "internalType": "uint256",
          "name": "id",
          "type": "uint256"
        },
        {
          "indexed": false,
          "internalType": "uint256",
          "name": "value",
          "type": "uint256"
        }
      ],
      "name": "TransferSingle",
      "type": "event"
    },
    {
      "anonymous": false,
      "inputs": [
        {
          "indexed": false,
          "internalType": "string",
          "name": "value",
          "type": "string"
        },
        {
          "indexed": true,
          "internalType": "uint256",
          "name": "id",
          "type": "uint256"
        }
      ],
      "name": "URI",
      "type": "event"
    },
    {
      "inputs": [
        {
          "internalType": "address",
          "name": "account",
          "type": "address"
        },
        {
          "internalType": "uint256",
          "name": "id",
          "type": "uint256"
        }
      ],
      "name": "balanceOf",
      "outputs": [
        {
          "internalType": "uint256",
          "name": "",
          "type": "uint256"
        }
      ],
      "stateMutability": "view",
      "type": "function"
    },
    {
      "inputs": [
        {
          "internalType": "address[]",
          "name": "accounts",
          "type": "address[]"
        },
        {
          "internalType": "uint256[]",
          "name": "ids",
          "type": "uint256[]"
        }
      ],
      "name": "balanceOfBatch",
      "outputs": [
        {
          "internalType": "uint256[]",
          "name": "",
          "type": "uint256[]"
        }
      ],
      "stateMutability": "view",
      "type": "function"
    },
    {
      "inputs": [
        {
          "internalType": "uint256",
          "name": "id",
          "type": "uint256"
        }
      ],
      "name": "exists",
      "outputs": [
        {
          "internalType": "bool",
          "name": "",
          "type": "bool"
        }
      ],
      "stateMutability": "view",
      "type": "function"
    },
    {
      "inputs": [
        {
          "internalType": "address",
          "name": "account",
          "type": "address"
        },
        {
          "internalType": "address",
          "name": "operator",
          "type": "address"
        }
      ],
      "name": "isApprovedForAll",
      "outputs": [
        {
          "internalType": "bool",
          "name": "",
          "type": "bool"
        }
      ],
      "stateMutability": "view",
      "type": "function"
    },
    {
      "inputs": [
        {
          "internalType": "uint256",
          "name": "",
          "type": "uint256"
        }
      ],
      "name": "meta",
      "outputs": [
        {
          "internalType": "bool",
          "name": "minted",
          "type": "bool"
        },
        {
          "internalType": "string",
          "name": "uri",
          "type": "string"
        }
      ],
      "stateMutability": "view",
      "type": "function"
    },
    {
      "inputs": [
        {
          "internalType": "address",
          "name": "to",
          "type": "address"
        },
        {
          "internalType": "uint256",
          "name": "tokenId",
          "type": "uint256"
        },
        {
          "internalType": "uint256",
          "name": "amount",
          "type": "uint256"
        },
        {
          "internalType": "string",
          "name": "metaUri",
          "type": "string"
        },
        {
          "internalType": "bytes",
          "name": "data",
          "type": "bytes"
        }
      ],
      "name": "mint",
      "outputs": [],
      "stateMutability": "nonpayable",
      "type": "function"
    },
    {
      "inputs": [],
      "name": "name",
      "outputs": [
        {
          "internalType": "string",
          "name": "",
          "type": "string"
        }
      ],
      "stateMutability": "view",
      "type": "function"
    },
    {
      "inputs": [],
      "name": "owner",
      "outputs": [
        {
          "internalType": "address",
          "name": "",
          "type": "address"
        }
      ],
      "stateMutability": "view",
      "type": "function"
    },
    {
      "inputs": [],
      "name": "renounceOwnership",
      "outputs": [],
      "stateMutability": "nonpayable",
      "type": "function"
    },
    {
      "inputs": [
        {
          "internalType": "address",
          "name": "from",
          "type": "address"
        },
        {
          "internalType": "address",
          "name": "to",
          "type": "address"
        },
        {
          "internalType": "uint256[]",
          "name": "ids",
          "type": "uint256[]"
        },
        {
          "internalType": "uint256[]",
          "name": "amounts",
          "type": "uint256[]"
        },
        {
          "internalType": "bytes",
          "name": "data",
          "type": "bytes"
        }
      ],
      "name": "safeBatchTransferFrom",
      "outputs": [],
      "stateMutability": "nonpayable",
      "type": "function"
    },
    {
      "inputs": [
        {
          "internalType": "address",
          "name": "from",
          "type": "address"
        },
        {
          "internalType": "address",
          "name": "to",
          "type": "address"
        },
        {
          "internalType": "uint256",
          "name": "id",
          "type": "uint256"
        },
        {
          "internalType": "uint256",
          "name": "amount",
          "type": "uint256"
        },
        {
          "internalType": "bytes",
          "name": "data",
          "type": "bytes"
        }
      ],
      "name": "safeTransferFrom",
      "outputs": [],
      "stateMutability": "nonpayable",
      "type": "function"
    },
    {
      "inputs": [
        {
          "internalType": "address",
          "name": "operator",
          "type": "address"
        },
        {
          "internalType": "bool",
          "name": "approved",
          "type": "bool"
        }
      ],
      "name": "setApprovalForAll",
      "outputs": [],
      "stateMutability": "nonpayable",
      "type": "function"
    },
    {
      "inputs": [
        {
          "internalType": "bytes4",
          "name": "interfaceId",
          "type": "bytes4"
        }
      ],
      "name": "supportsInterface",
      "outputs": [
        {
          "internalType": "bool",
          "name": "",
          "type": "bool"
        }
      ],
      "stateMutability": "view",
      "type": "function"
    },
    {
      "inputs": [
        {
          "internalType": "uint256",
          "name": "id",
          "type": "uint256"
        }
      ],
      "name": "totalSupply",
      "outputs": [
        {
          "internalType": "uint256",
          "name": "",
          "type": "uint256"
        }
      ],
      "stateMutability": "view",
      "type": "function"
    },
    {
      "inputs": [
        {
          "internalType": "address",
          "name": "newOwner",
          "type": "address"
        }
      ],
      "name": "transferOwnership",
      "outputs": [],
      "stateMutability": "nonpayable",
      "type": "function"
    },
    {
      "inputs": [
        {
          "internalType": "uint256",
          "name": "tokenId",
          "type": "uint256"
        }
      ],
      "name": "uri",
      "outputs": [
        {
          "internalType": "string",
          "name": "",
          "type": "string"
        }
      ],
      "stateMutability": "view",
      "type": "function"
    }
  ],
  "args": [
    "0xa995AE28b9cFf206C3971D1887cc934FC48e3a0F"
  ],
  "bytecode": "0x60c060405260056080819052642a22bb32b960d91b60a0908152620000269190816200019c565b503480156200003457600080fd5b506040516200212038038062002120833981016040819052620000579162000242565b604080516020810190915260008152620000718162000098565b506200008662000080620000b1565b620000b5565b620000918162000107565b506200032a565b8051620000ad9060029060208401906200019c565b5050565b3390565b600480546001600160a01b038381166001600160a01b0319831681179093556040519116919082907f8be0079c531659141344cd1fd0a4f28419497f9722a3daafe3b4186f6b6457e090600090a35050565b62000111620000b1565b6001600160a01b0316620001246200018d565b6001600160a01b031614620001565760405162461bcd60e51b81526004016200014d90620002b8565b60405180910390fd5b6001600160a01b0381166200017f5760405162461bcd60e51b81526004016200014d9062000272565b6200018a81620000b5565b50565b6004546001600160a01b031690565b828054620001aa90620002ed565b90600052602060002090601f016020900481019282620001ce576000855562000219565b82601f10620001e957805160ff191683800117855562000219565b8280016001018555821562000219579182015b8281111562000219578251825591602001919060010190620001fc565b50620002279291506200022b565b5090565b5b808211156200022757600081556001016200022c565b60006020828403121562000254578081fd5b81516001600160a01b03811681146200026b578182fd5b9392505050565b60208082526026908201527f4f776e61626c653a206e6577206f776e657220697320746865207a65726f206160408201526564647265737360d01b606082015260800190565b6020808252818101527f4f776e61626c653a2063616c6c6572206973206e6f7420746865206f776e6572604082015260600190565b6002810460018216806200030257607f821691505b602082108114156200032457634e487b7160e01b600052602260045260246000fd5b50919050565b611de6806200033a6000396000f3fe608060405234801561001057600080fd5b50600436106100ff5760003560e01c80638da5cb5b11610097578063cd5cfdaf11610066578063cd5cfdaf14610213578063e985e9c514610234578063f242432a14610247578063f2fde38b1461025a576100ff565b80638da5cb5b146101c5578063a22cb465146101da578063a4b645eb146101ed578063bd85b03914610200576100ff565b80632eb2c2d6116100d35780632eb2c2d6146101755780634e1273f41461018a5780634f558e79146101aa578063715018a6146101bd576100ff565b8062fdd58e1461010457806301ffc9a71461012d57806306fdde031461014d5780630e89341c14610162575b600080fd5b610117610112366004611409565b61026d565b6040516101249190611bf0565b60405180910390f35b61014061013b3660046115ba565b6102c4565b6040516101249190611787565b61015561030c565b60405161012491906117b5565b6101556101703660046115f2565b61039a565b6101886101833660046112c6565b610462565b005b61019d6101983660046114fc565b6104c0565b6040516101249190611746565b6101406101b83660046115f2565b6105e0565b6101886105f3565b6101cd61063e565b604051610124919061168f565b6101886101e83660046113cf565b61064e565b6101886101fb366004611432565b61071c565b61011761020e3660046115f2565b610859565b6102266102213660046115f2565b61086b565b604051610124929190611792565b610140610242366004611294565b610914565b61018861025536600461136c565b610942565b61018861026836600461127a565b610999565b60006001600160a01b03831661029e5760405162461bcd60e51b8152600401610295906118ae565b60405180910390fd5b506000908152602081815260408083206001600160a01b03949094168352929052205490565b60006001600160e01b03198216636cdb3d1360e11b14806102f557506001600160e01b031982166303a24d0760e21b145b80610304575061030482610a0a565b90505b919050565b6005805461031990611c6d565b80601f016020809104026020016040519081016040528092919081815260200182805461034590611c6d565b80156103925780601f1061036757610100808354040283529160200191610392565b820191906000526020600020905b81548152906001019060200180831161037557829003601f168201915b505050505081565b60606103a5826105e0565b6103c15760405162461bcd60e51b815260040161029590611864565b600082815260066020526040902060010180546103dd90611c6d565b80601f016020809104026020016040519081016040528092919081815260200182805461040990611c6d565b80156104565780601f1061042b57610100808354040283529160200191610456565b820191906000526020600020905b81548152906001019060200180831161043957829003601f168201915b50505050509050919050565b61046a610a23565b6001600160a01b0316856001600160a01b03161480610490575061049085610242610a23565b6104ac5760405162461bcd60e51b8152600401610295906119cd565b6104b98585858585610a27565b5050505050565b606081518351146104e35760405162461bcd60e51b815260040161029590611b1e565b6000835167ffffffffffffffff81111561050d57634e487b7160e01b600052604160045260246000fd5b604051908082528060200260200182016040528015610536578160200160208202803683370190505b50905060005b84518110156105d85761059d85828151811061056857634e487b7160e01b600052603260045260246000fd5b602002602001015185838151811061059057634e487b7160e01b600052603260045260246000fd5b602002602001015161026d565b8282815181106105bd57634e487b7160e01b600052603260045260246000fd5b60209081029190910101526105d181611ca8565b905061053c565b509392505050565b6000806105ec83610859565b1192915050565b6105fb610a23565b6001600160a01b031661060c61063e565b6001600160a01b0316146106325760405162461bcd60e51b815260040161029590611a69565b61063c6000610bf8565b565b6004546001600160a01b03165b90565b816001600160a01b0316610660610a23565b6001600160a01b031614156106875760405162461bcd60e51b815260040161029590611ad5565b8060016000610694610a23565b6001600160a01b03908116825260208083019390935260409182016000908120918716808252919093529120805460ff1916921515929092179091556106d8610a23565b6001600160a01b03167f17307eab39ab6107e8899845ad3d59bd9653f200f220920489ca2b5937696c31836040516107109190611787565b60405180910390a35050565b610724610a23565b6001600160a01b031661073561063e565b6001600160a01b03161461075b5760405162461bcd60e51b815260040161029590611a69565b60008581526006602052604090205460ff161561078a5760405162461bcd60e51b815260040161029590611a9e565b6107cc86868685858080601f016020809104026020016040519081016040528093929190818152602001838380828437600092019190915250610c4a92505050565b6040805180820182526001808252602080830187815260008a815260068352949094208351815460ff1916901515178155935180519394936108159385019291909101906110e0565b50905050847fa109ba539900bf1b633f956d63c96fc89b814c7287f7aa50a9216d0b556572078460405161084991906117b5565b60405180910390a2505050505050565b60009081526003602052604090205490565b6006602052600090815260409020805460018201805460ff909216929161089190611c6d565b80601f01602080910402602001604051908101604052809291908181526020018280546108bd90611c6d565b801561090a5780601f106108df5761010080835404028352916020019161090a565b820191906000526020600020905b8154815290600101906020018083116108ed57829003601f168201915b5050505050905082565b6001600160a01b03918216600090815260016020908152604080832093909416825291909152205460ff1690565b61094a610a23565b6001600160a01b0316856001600160a01b03161480610970575061097085610242610a23565b61098c5760405162461bcd60e51b81526004016102959061193f565b6104b98585858585610c7f565b6109a1610a23565b6001600160a01b03166109b261063e565b6001600160a01b0316146109d85760405162461bcd60e51b815260040161029590611a69565b6001600160a01b0381166109fe5760405162461bcd60e51b8152600401610295906118f9565b610a0781610bf8565b50565b6001600160e01b031981166301ffc9a760e01b14919050565b3390565b8151835114610a485760405162461bcd60e51b815260040161029590611b67565b6001600160a01b038416610a6e5760405162461bcd60e51b815260040161029590611988565b6000610a78610a23565b9050610a88818787878787610bf0565b60005b8451811015610b8a576000858281518110610ab657634e487b7160e01b600052603260045260246000fd5b602002602001015190506000858381518110610ae257634e487b7160e01b600052603260045260246000fd5b602090810291909101810151600084815280835260408082206001600160a01b038e168352909352919091205490915081811015610b325760405162461bcd60e51b815260040161029590611a1f565b6000838152602081815260408083206001600160a01b038e8116855292528083208585039055908b16825281208054849290610b6f908490611c55565b9250508190555050505080610b8390611ca8565b9050610a8b565b50846001600160a01b0316866001600160a01b0316826001600160a01b03167f4a39dc06d4c0dbc64b70af90fd698a233a518aa5d07e595d983b8c0526c8f7fb8787604051610bda929190611759565b60405180910390a4610bf0818787878787610dc2565b505050505050565b600480546001600160a01b038381166001600160a01b0319831681179093556040519116919082907f8be0079c531659141344cd1fd0a4f28419497f9722a3daafe3b4186f6b6457e090600090a35050565b610c5684848484610ed0565b60008381526003602052604081208054849290610c74908490611c55565b909155505050505050565b6001600160a01b038416610ca55760405162461bcd60e51b815260040161029590611988565b6000610caf610a23565b9050610ccf818787610cc088610fb0565b610cc988610fb0565b87610bf0565b6000848152602081815260408083206001600160a01b038a16845290915290205483811015610d105760405162461bcd60e51b815260040161029590611a1f565b6000858152602081815260408083206001600160a01b038b8116855292528083208785039055908816825281208054869290610d4d908490611c55565b92505081905550856001600160a01b0316876001600160a01b0316836001600160a01b03167fc3d58168c5ae7397731d063d5bbf3d657854427343f4c083240f7aacaa2d0f628888604051610da3929190611bf9565b60405180910390a4610db9828888888888611009565b50505050505050565b610dd4846001600160a01b03166110da565b15610bf05760405163bc197c8160e01b81526001600160a01b0385169063bc197c8190610e0d90899089908890889088906004016116a3565b602060405180830381600087803b158015610e2757600080fd5b505af1925050508015610e57575060408051601f3d908101601f19168201909252610e54918101906115d6565b60015b610ea057610e63611cf5565b80610e6e5750610e88565b8060405162461bcd60e51b815260040161029591906117b5565b60405162461bcd60e51b8152600401610295906117c8565b6001600160e01b0319811663bc197c8160e01b14610db95760405162461bcd60e51b81526004016102959061181c565b6001600160a01b038416610ef65760405162461bcd60e51b815260040161029590611baf565b6000610f00610a23565b9050610f1281600087610cc088610fb0565b6000848152602081815260408083206001600160a01b038916845290915281208054859290610f42908490611c55565b92505081905550846001600160a01b031660006001600160a01b0316826001600160a01b03167fc3d58168c5ae7397731d063d5bbf3d657854427343f4c083240f7aacaa2d0f628787604051610f99929190611bf9565b60405180910390a46104b981600087878787611009565b60408051600180825281830190925260609160009190602080830190803683370190505090508281600081518110610ff857634e487b7160e01b600052603260045260246000fd5b602090810291909101015292915050565b61101b846001600160a01b03166110da565b15610bf05760405163f23a6e6160e01b81526001600160a01b0385169063f23a6e61906110549089908990889088908890600401611701565b602060405180830381600087803b15801561106e57600080fd5b505af192505050801561109e575060408051601f3d908101601f1916820190925261109b918101906115d6565b60015b6110aa57610e63611cf5565b6001600160e01b0319811663f23a6e6160e01b14610db95760405162461bcd60e51b81526004016102959061181c565b3b151590565b8280546110ec90611c6d565b90600052602060002090601f01602090048101928261110e5760008555611154565b82601f1061112757805160ff1916838001178555611154565b82800160010185558215611154579182015b82811115611154578251825591602001919060010190611139565b50611160929150611164565b5090565b5b808211156111605760008155600101611165565b600067ffffffffffffffff83111561119357611193611cd9565b6111a6601f8401601f1916602001611c07565b90508281528383830111156111ba57600080fd5b828260208301376000602084830101529392505050565b80356001600160a01b038116811461030757600080fd5b600082601f8301126111f8578081fd5b8135602061120d61120883611c31565b611c07565b8281528181019085830183850287018401881015611229578586fd5b855b858110156112475781358452928401929084019060010161122b565b5090979650505050505050565b600082601f830112611264578081fd5b61127383833560208501611179565b9392505050565b60006020828403121561128b578081fd5b611273826111d1565b600080604083850312156112a6578081fd5b6112af836111d1565b91506112bd602084016111d1565b90509250929050565b600080600080600060a086880312156112dd578081fd5b6112e6866111d1565b94506112f4602087016111d1565b9350604086013567ffffffffffffffff80821115611310578283fd5b61131c89838a016111e8565b94506060880135915080821115611331578283fd5b61133d89838a016111e8565b93506080880135915080821115611352578283fd5b5061135f88828901611254565b9150509295509295909350565b600080600080600060a08688031215611383578081fd5b61138c866111d1565b945061139a602087016111d1565b93506040860135925060608601359150608086013567ffffffffffffffff8111156113c3578182fd5b61135f88828901611254565b600080604083850312156113e1578182fd5b6113ea836111d1565b9150602083013580151581146113fe578182fd5b809150509250929050565b6000806040838503121561141b578182fd5b611424836111d1565b946020939093013593505050565b60008060008060008060a0878903121561144a578081fd5b611453876111d1565b95506020870135945060408701359350606087013567ffffffffffffffff8082111561147d578283fd5b818901915089601f830112611490578283fd5b61149f8a833560208501611179565b945060808901359150808211156114b4578283fd5b818901915089601f8301126114c7578283fd5b8135818111156114d5578384fd5b8a60208285010111156114e6578384fd5b6020830194508093505050509295509295509295565b6000806040838503121561150e578182fd5b823567ffffffffffffffff80821115611525578384fd5b818501915085601f830112611538578384fd5b8135602061154861120883611c31565b82815281810190858301838502870184018b1015611564578889fd5b8896505b8487101561158d57611579816111d1565b835260019690960195918301918301611568565b50965050860135925050808211156115a3578283fd5b506115b0858286016111e8565b9150509250929050565b6000602082840312156115cb578081fd5b813561127381611d9a565b6000602082840312156115e7578081fd5b815161127381611d9a565b600060208284031215611603578081fd5b5035919050565b6000815180845260208085019450808401835b838110156116395781518752958201959082019060010161161d565b509495945050505050565b60008151808452815b818110156116695760208185018101518683018201520161164d565b8181111561167a5782602083870101525b50601f01601f19169290920160200192915050565b6001600160a01b0391909116815260200190565b6001600160a01b0386811682528516602082015260a0604082018190526000906116cf9083018661160a565b82810360608401526116e1818661160a565b905082810360808401526116f58185611644565b98975050505050505050565b6001600160a01b03868116825285166020820152604081018490526060810183905260a06080820181905260009061173b90830184611644565b979650505050505050565b600060208252611273602083018461160a565b60006040825261176c604083018561160a565b828103602084015261177e818561160a565b95945050505050565b901515815260200190565b60008315158252604060208301526117ad6040830184611644565b949350505050565b6000602082526112736020830184611644565b60208082526034908201527f455243313135353a207472616e7366657220746f206e6f6e20455243313135356040820152732932b1b2b4bb32b91034b6b83632b6b2b73a32b960611b606082015260800190565b60208082526028908201527f455243313135353a204552433131353552656365697665722072656a656374656040820152676420746f6b656e7360c01b606082015260800190565b6020808252602a908201527f5445766572313135353a2055524920717565727920666f72206e6f6e657869736040820152693a32b73a103a37b5b2b760b11b606082015260800190565b6020808252602b908201527f455243313135353a2062616c616e636520717565727920666f7220746865207a60408201526a65726f206164647265737360a81b606082015260800190565b60208082526026908201527f4f776e61626c653a206e6577206f776e657220697320746865207a65726f206160408201526564647265737360d01b606082015260800190565b60208082526029908201527f455243313135353a2063616c6c6572206973206e6f74206f776e6572206e6f7260408201526808185c1c1c9bdd995960ba1b606082015260800190565b60208082526025908201527f455243313135353a207472616e7366657220746f20746865207a65726f206164604082015264647265737360d81b606082015260800190565b60208082526032908201527f455243313135353a207472616e736665722063616c6c6572206973206e6f74206040820152711bdddb995c881b9bdc88185c1c1c9bdd995960721b606082015260800190565b6020808252602a908201527f455243313135353a20696e73756666696369656e742062616c616e636520666f60408201526939103a3930b739b332b960b11b606082015260800190565b6020808252818101527f4f776e61626c653a2063616c6c6572206973206e6f7420746865206f776e6572604082015260600190565b6020808252601e908201527f5445766572313135353a20746f6b656e20686173206265656e206d696e740000604082015260600190565b60208082526029908201527f455243313135353a2073657474696e6720617070726f76616c20737461747573604082015268103337b91039b2b63360b91b606082015260800190565b60208082526029908201527f455243313135353a206163636f756e747320616e6420696473206c656e677468604082015268040dad2e6dac2e8c6d60bb1b606082015260800190565b60208082526028908201527f455243313135353a2069647320616e6420616d6f756e7473206c656e677468206040820152670dad2e6dac2e8c6d60c31b606082015260800190565b60208082526021908201527f455243313135353a206d696e7420746f20746865207a65726f206164647265736040820152607360f81b606082015260800190565b90815260200190565b918252602082015260400190565b60405181810167ffffffffffffffff81118282101715611c2957611c29611cd9565b604052919050565b600067ffffffffffffffff821115611c4b57611c4b611cd9565b5060209081020190565b60008219821115611c6857611c68611cc3565b500190565b600281046001821680611c8157607f821691505b60208210811415611ca257634e487b7160e01b600052602260045260246000fd5b50919050565b6000600019821415611cbc57611cbc611cc3565b5060010190565b634e487b7160e01b600052601160045260246000fd5b634e487b7160e01b600052604160045260246000fd5b60e01c90565b600060443d1015611d055761064b565b600481823e6308c379a0611d198251611cef565b14611d235761064b565b6040513d600319016004823e80513d67ffffffffffffffff8160248401118184111715611d53575050505061064b565b82840192508251915080821115611d6d575050505061064b565b503d83016020828401011115611d855750505061064b565b601f01601f1916810160200160405291505090565b6001600160e01b031981168114610a0757600080fdfea264697066735822122041c51e1dd834407bdbcebc6ee388d6d03c64e2a55b654fc1bbaa0515c443f5fd64736f6c63430008000033"
}